{
  "_format": "hh-sol-artifact-1",
  "contractName": "DeNFT",
  "sourceName": "contracts/DeNFT.sol",
  "abi": [
    {
      "inputs": [],
      "stateMutability": "nonpayable",
      "type": "constructor"
    },
    {
      "anonymous": false,
      "inputs": [
        {
          "indexed": true,
          "internalType": "address",
          "name": "owner",
          "type": "address"
        },
        {
          "indexed": true,
          "internalType": "address",
          "name": "approved",
          "type": "address"
        },
        {
          "indexed": true,
          "internalType": "uint256",
          "name": "tokenId",
          "type": "uint256"
        }
      ],
      "name": "Approval",
      "type": "event"
    },
    {
      "anonymous": false,
      "inputs": [
        {
          "indexed": true,
          "internalType": "address",
          "name": "owner",
          "type": "address"
        },
        {
          "indexed": true,
          "internalType": "address",
          "name": "operator",
          "type": "address"
        },
        {
          "indexed": false,
          "internalType": "bool",
          "name": "approved",
          "type": "bool"
        }
      ],
      "name": "ApprovalForAll",
      "type": "event"
    },
    {
      "anonymous": false,
      "inputs": [
        {
          "indexed": true,
          "internalType": "address",
          "name": "from",
          "type": "address"
        },
        {
          "indexed": true,
          "internalType": "address",
          "name": "to",
          "type": "address"
        },
        {
          "indexed": true,
          "internalType": "uint256",
          "name": "tokenId",
          "type": "uint256"
        }
      ],
      "name": "Transfer",
      "type": "event"
    },
    {
      "anonymous": false,
      "inputs": [
        {
          "indexed": false,
          "internalType": "address",
          "name": "sender",
          "type": "address"
        },
        {
          "indexed": false,
          "internalType": "uint256",
          "name": "tokenId",
          "type": "uint256"
        }
      ],
      "name": "nftMinted",
      "type": "event"
    },
    {
      "inputs": [
        {
          "internalType": "address",
          "name": "to",
          "type": "address"
        },
        {
          "internalType": "uint256",
          "name": "tokenId",
          "type": "uint256"
        }
      ],
      "name": "approve",
      "outputs": [],
      "stateMutability": "nonpayable",
      "type": "function"
    },
    {
      "inputs": [
        {
          "internalType": "address",
          "name": "owner",
          "type": "address"
        }
      ],
      "name": "balanceOf",
      "outputs": [
        {
          "internalType": "uint256",
          "name": "",
          "type": "uint256"
        }
      ],
      "stateMutability": "view",
      "type": "function"
    },
    {
      "inputs": [
        {
          "internalType": "uint256",
          "name": "tokenId",
          "type": "uint256"
        }
      ],
      "name": "getApproved",
      "outputs": [
        {
          "internalType": "address",
          "name": "",
          "type": "address"
        }
      ],
      "stateMutability": "view",
      "type": "function"
    },
    {
      "inputs": [
        {
          "internalType": "address",
          "name": "owner",
          "type": "address"
        },
        {
          "internalType": "address",
          "name": "operator",
          "type": "address"
        }
      ],
      "name": "isApprovedForAll",
      "outputs": [
        {
          "internalType": "bool",
          "name": "",
          "type": "bool"
        }
      ],
      "stateMutability": "view",
      "type": "function"
    },
    {
      "inputs": [],
      "name": "mintAnNFT",
      "outputs": [],
      "stateMutability": "nonpayable",
      "type": "function"
    },
    {
      "inputs": [],
      "name": "name",
      "outputs": [
        {
          "internalType": "string",
          "name": "",
          "type": "string"
        }
      ],
      "stateMutability": "view",
      "type": "function"
    },
    {
      "inputs": [
        {
          "internalType": "uint256",
          "name": "tokenId",
          "type": "uint256"
        }
      ],
      "name": "ownerOf",
      "outputs": [
        {
          "internalType": "address",
          "name": "",
          "type": "address"
        }
      ],
      "stateMutability": "view",
      "type": "function"
    },
    {
      "inputs": [
        {
          "internalType": "uint256",
          "name": "tokenId",
          "type": "uint256"
        }
      ],
      "name": "pickRandomColor",
      "outputs": [
        {
          "internalType": "string",
          "name": "",
          "type": "string"
        }
      ],
      "stateMutability": "view",
      "type": "function"
    },
    {
      "inputs": [
        {
          "internalType": "uint256",
          "name": "tokenId",
          "type": "uint256"
        },
        {
          "internalType": "string",
          "name": "initalword",
          "type": "string"
        },
        {
          "internalType": "string[]",
          "name": "wordsArr",
          "type": "string[]"
        }
      ],
      "name": "pickRandomWordFromArr",
      "outputs": [
        {
          "internalType": "string",
          "name": "",
          "type": "string"
        }
      ],
      "stateMutability": "pure",
      "type": "function"
    },
    {
      "inputs": [
        {
          "internalType": "address",
          "name": "from",
          "type": "address"
        },
        {
          "internalType": "address",
          "name": "to",
          "type": "address"
        },
        {
          "internalType": "uint256",
          "name": "tokenId",
          "type": "uint256"
        }
      ],
      "name": "safeTransferFrom",
      "outputs": [],
      "stateMutability": "nonpayable",
      "type": "function"
    },
    {
      "inputs": [
        {
          "internalType": "address",
          "name": "from",
          "type": "address"
        },
        {
          "internalType": "address",
          "name": "to",
          "type": "address"
        },
        {
          "internalType": "uint256",
          "name": "tokenId",
          "type": "uint256"
        },
        {
          "internalType": "bytes",
          "name": "_data",
          "type": "bytes"
        }
      ],
      "name": "safeTransferFrom",
      "outputs": [],
      "stateMutability": "nonpayable",
      "type": "function"
    },
    {
      "inputs": [
        {
          "internalType": "address",
          "name": "operator",
          "type": "address"
        },
        {
          "internalType": "bool",
          "name": "approved",
          "type": "bool"
        }
      ],
      "name": "setApprovalForAll",
      "outputs": [],
      "stateMutability": "nonpayable",
      "type": "function"
    },
    {
      "inputs": [
        {
          "internalType": "bytes4",
          "name": "interfaceId",
          "type": "bytes4"
        }
      ],
      "name": "supportsInterface",
      "outputs": [
        {
          "internalType": "bool",
          "name": "",
          "type": "bool"
        }
      ],
      "stateMutability": "view",
      "type": "function"
    },
    {
      "inputs": [],
      "name": "symbol",
      "outputs": [
        {
          "internalType": "string",
          "name": "",
          "type": "string"
        }
      ],
      "stateMutability": "view",
      "type": "function"
    },
    {
      "inputs": [
        {
          "internalType": "uint256",
          "name": "tokenId",
          "type": "uint256"
        }
      ],
      "name": "tokenURI",
      "outputs": [
        {
          "internalType": "string",
          "name": "",
          "type": "string"
        }
      ],
      "stateMutability": "view",
      "type": "function"
    },
    {
      "inputs": [
        {
          "internalType": "address",
          "name": "from",
          "type": "address"
        },
        {
          "internalType": "address",
          "name": "to",
          "type": "address"
        },
        {
          "internalType": "uint256",
          "name": "tokenId",
          "type": "uint256"
        }
      ],
      "name": "transferFrom",
      "outputs": [],
      "stateMutability": "nonpayable",
      "type": "function"
    }
  ],
  "bytecode": "0x608060405260026007556040518061018001604052806040518060400160405280600381526020017f526564000000000000000000000000000000000000000000000000000000000081525081526020016040518060400160405280600881526020017f426c61636b52656400000000000000000000000000000000000000000000000081525081526020016040518060400160405280600681526020017f59656c6c6f77000000000000000000000000000000000000000000000000000081525081526020016040518060400160405280600a81526020017f5665727959656c6c6f770000000000000000000000000000000000000000000081525081526020016040518060400160405280600481526020017f426c75650000000000000000000000000000000000000000000000000000000081525081526020016040518060400160405280600881526020017f4461726b426c756500000000000000000000000000000000000000000000000081525081526020016040518060400160405280600581526020017f42726f776e00000000000000000000000000000000000000000000000000000081525081526020016040518060400160405280600a81526020017f426c61636b42726f776e0000000000000000000000000000000000000000000081525081526020016040518060400160405280600681526020017f507572706c65000000000000000000000000000000000000000000000000000081525081526020016040518060400160405280600981526020017f526564507572706c65000000000000000000000000000000000000000000000081525081526020016040518060400160405280600681526020017f53696c766572000000000000000000000000000000000000000000000000000081525081526020016040518060400160405280600d81526020017f426c61636b566572794d75636800000000000000000000000000000000000000815250815250600890600c620002e992919062000cd4565b506040518060c001604052806040518060400160405280600681526020017f496365746561000000000000000000000000000000000000000000000000000081525081526020016040518060400160405280600a81526020017f566572794963657465610000000000000000000000000000000000000000000081525081526020016040518060400160405280600581526020017f417972616e00000000000000000000000000000000000000000000000000000081525081526020016040518060400160405280600981526020017f56657279417972616e000000000000000000000000000000000000000000000081525081526020016040518060400160405280600781526020017f4e6573636166650000000000000000000000000000000000000000000000000081525081526020016040518060400160405280600e81526020017f5475726b69736820436f6666656500000000000000000000000000000000000081525081525060099060066200046792919062000d3b565b506040518061010001604052806040518060400160405280600781526020017f546f6d6174746f0000000000000000000000000000000000000000000000000081525081526020016040518060400160405280600481526020017f4f6372610000000000000000000000000000000000000000000000000000000081525081526020016040518060400160405280600681526020017f506f7461746f000000000000000000000000000000000000000000000000000081525081526020016040518060400160405280600781526020017f526564646973680000000000000000000000000000000000000000000000000081525081526020016040518060400160405280600781526020017f436162626167650000000000000000000000000000000000000000000000000081525081526020016040518060400160405280600b81526020017f477265656e4368696c6c6900000000000000000000000000000000000000000081525081526020016040518060400160405280600a81526020017f566572794368696c6c690000000000000000000000000000000000000000000081525081526020016040518060400160405280600981526020017f5265644368696c6c690000000000000000000000000000000000000000000000815250815250600a9060086200065c92919062000da2565b5060405180610100016040528060d38152602001620050d460d39139600b90805190602001906200068f92919062000e09565b50604051806080016040528060568152602001620051a760569139600c9080519060200190620006c192919062000e09565b506040518061024001604052806040518060400160405280600781526020017f236634343333360000000000000000000000000000000000000000000000000081525081526020016040518060400160405280600781526020017f236539316536330000000000000000000000000000000000000000000000000081525081526020016040518060400160405280600781526020017f233963323762300000000000000000000000000000000000000000000000000081525081526020016040518060400160405280600781526020017f233366353162350000000000000000000000000000000000000000000000000081525081526020016040518060400160405280600781526020017f233231393666330000000000000000000000000000000000000000000000000081525081526020016040518060400160405280600781526020017f233033613966340000000000000000000000000000000000000000000000000081525081526020016040518060400160405280600781526020017f233030626364340000000000000000000000000000000000000000000000000081525081526020016040518060400160405280600781526020017f233030393638380000000000000000000000000000000000000000000000000081525081526020016040518060400160405280600781526020017f233463616635300000000000000000000000000000000000000000000000000081525081526020016040518060400160405280600781526020017f233862633334610000000000000000000000000000000000000000000000000081525081526020016040518060400160405280600781526020017f236364646333390000000000000000000000000000000000000000000000000081525081526020016040518060400160405280600781526020017f236666656233620000000000000000000000000000000000000000000000000081525081526020016040518060400160405280600781526020017f236666633130370000000000000000000000000000000000000000000000000081525081526020016040518060400160405280600781526020017f236666393830300000000000000000000000000000000000000000000000000081525081526020016040518060400160405280600781526020017f236666353732320000000000000000000000000000000000000000000000000081525081526020016040518060400160405280600781526020017f233739353534380000000000000000000000000000000000000000000000000081525081526020016040518060400160405280600781526020017f233965396539650000000000000000000000000000000000000000000000000081525081526020016040518060400160405280600781526020017f2336303764386200000000000000000000000000000000000000000000000000815250815250600d90601262000b0492919062000e9a565b5034801562000b1257600080fd5b506040518060400160405280600781526020017f44654e66747632000000000000000000000000000000000000000000000000008152506040518060400160405280600781526020017f44454e4654763200000000000000000000000000000000000000000000000000815250816000908051906020019062000b9792919062000e09565b50806001908051906020019062000bb092919062000e09565b50505062000bff6040518060400160405280601c81526020017f696e6974696e67204e465420636f6e74726163742c204f776e65723d000000008152503362000c0560201b620012c41760201c565b62001110565b62000ca7828260405160240162000c1e92919062000fe0565b6040516020818303038152906040527f319af333000000000000000000000000000000000000000000000000000000007bffffffffffffffffffffffffffffffffffffffffffffffffffffffff19166020820180517bffffffffffffffffffffffffffffffffffffffffffffffffffffffff838183161783525050505062000cab60201b60201c565b5050565b60008151905060006a636f6e736f6c652e6c6f679050602083016000808483855afa5050505050565b82805482825590600052602060002090810192821562000d28579160200282015b8281111562000d2757825182908051906020019062000d1692919062000e09565b509160200191906001019062000cf5565b5b50905062000d37919062000f01565b5090565b82805482825590600052602060002090810192821562000d8f579160200282015b8281111562000d8e57825182908051906020019062000d7d92919062000e09565b509160200191906001019062000d5c565b5b50905062000d9e919062000f01565b5090565b82805482825590600052602060002090810192821562000df6579160200282015b8281111562000df557825182908051906020019062000de492919062000e09565b509160200191906001019062000dc3565b5b50905062000e05919062000f01565b5090565b82805462000e17906200109a565b90600052602060002090601f01602090048101928262000e3b576000855562000e87565b82601f1062000e5657805160ff191683800117855562000e87565b8280016001018555821562000e87579182015b8281111562000e8657825182559160200191906001019062000e69565b5b50905062000e96919062000f29565b5090565b82805482825590600052602060002090810192821562000eee579160200282015b8281111562000eed57825182908051906020019062000edc92919062000e09565b509160200191906001019062000ebb565b5b50905062000efd919062000f01565b5090565b5b8082111562000f25576000818162000f1b919062000f48565b5060010162000f02565b5090565b5b8082111562000f4457600081600090555060010162000f2a565b5090565b50805462000f56906200109a565b6000825580601f1062000f6a575062000f8b565b601f01602090049060005260206000209081019062000f8a919062000f29565b5b50565b62000f998162001030565b82525050565b600062000fac8262001014565b62000fb881856200101f565b935062000fca81856020860162001064565b62000fd581620010ff565b840191505092915050565b6000604082019050818103600083015262000ffc818562000f9f565b90506200100d602083018462000f8e565b9392505050565b600081519050919050565b600082825260208201905092915050565b60006200103d8262001044565b9050919050565b600073ffffffffffffffffffffffffffffffffffffffff82169050919050565b60005b838110156200108457808201518184015260208101905062001067565b8381111562001094576000848401525b50505050565b60006002820490506001821680620010b357607f821691505b60208210811415620010ca57620010c9620010d0565b5b50919050565b7f4e487b7100000000000000000000000000000000000000000000000000000000600052602260045260246000fd5b6000601f19601f8301169050919050565b613fb480620011206000396000f3fe608060405234801561001057600080fd5b50600436106101005760003560e01c80636352211e11610097578063b88d4fde11610066578063b88d4fde146102d1578063c87b56dd146102ed578063e985e9c51461031d578063f3d704c81461034d57610100565b80636352211e1461023757806370a082311461026757806395d89b4114610297578063a22cb465146102b557610100565b806321bef32d116100d357806321bef32d1461019f57806323b872dd146101cf57806342842e0e146101eb578063514dc8c61461020757610100565b806301ffc9a71461010557806306fdde0314610135578063081812fc14610153578063095ea7b314610183575b600080fd5b61011f600480360381019061011a9190612946565b610357565b60405161012c9190613082565b60405180910390f35b61013d610439565b60405161014a919061309d565b60405180910390f35b61016d60048036038101906101689190612998565b6104cb565b60405161017a9190612ff2565b60405180910390f35b61019d6004803603810190610198919061290a565b610550565b005b6101b960048036038101906101b491906129c1565b610668565b6040516101c6919061309d565b60405180910390f35b6101e960048036038101906101e49190612804565b6106fa565b005b61020560048036038101906102009190612804565b61075a565b005b610221600480360381019061021c9190612998565b61077a565b60405161022e919061309d565b60405180910390f35b610251600480360381019061024c9190612998565b610898565b60405161025e9190612ff2565b60405180910390f35b610281600480360381019061027c919061279f565b61094a565b60405161028e91906133ae565b60405180910390f35b61029f610a02565b6040516102ac919061309d565b60405180910390f35b6102cf60048036038101906102ca91906128ce565b610a94565b005b6102eb60048036038101906102e69190612853565b610aaa565b005b61030760048036038101906103029190612998565b610b0c565b604051610314919061309d565b60405180910390f35b610337600480360381019061033291906127c8565b610c5e565b6040516103449190613082565b60405180910390f35b610355610cf2565b005b60007f80ac58cd000000000000000000000000000000000000000000000000000000007bffffffffffffffffffffffffffffffffffffffffffffffffffffffff1916827bffffffffffffffffffffffffffffffffffffffffffffffffffffffff1916148061042257507f5b5e139f000000000000000000000000000000000000000000000000000000007bffffffffffffffffffffffffffffffffffffffffffffffffffffffff1916827bffffffffffffffffffffffffffffffffffffffffffffffffffffffff1916145b80610432575061043182611360565b5b9050919050565b6060600080546104489061369f565b80601f01602080910402602001604051908101604052809291908181526020018280546104749061369f565b80156104c15780601f10610496576101008083540402835291602001916104c1565b820191906000526020600020905b8154815290600101906020018083116104a457829003601f168201915b5050505050905090565b60006104d6826113ca565b610515576040517f08c379a000000000000000000000000000000000000000000000000000000000815260040161050c9061332e565b60405180910390fd5b6004600083815260200190815260200160002060009054906101000a900473ffffffffffffffffffffffffffffffffffffffff169050919050565b600061055b82610898565b90508073ffffffffffffffffffffffffffffffffffffffff168373ffffffffffffffffffffffffffffffffffffffff1614156105cc576040517f08c379a00000000000000000000000000000000000000000000000000000000081526004016105c39061336e565b60405180910390fd5b8073ffffffffffffffffffffffffffffffffffffffff166105eb611436565b73ffffffffffffffffffffffffffffffffffffffff16148061061a575061061981610614611436565b610c5e565b5b610659576040517f08c379a00000000000000000000000000000000000000000000000000000000081526004016106509061326e565b60405180910390fd5b610663838361143e565b505050565b6060600061069e84610679876114f7565b60405160200161068a929190612ecb565b6040516020818303038152906040526116a4565b90508251816106ad919061374b565b90508281815181106106e8577f4e487b7100000000000000000000000000000000000000000000000000000000600052603260045260246000fd5b60200260200101519150509392505050565b61070b610705611436565b826116d7565b61074a576040517f08c379a00000000000000000000000000000000000000000000000000000000081526004016107419061338e565b60405180910390fd5b6107558383836117b5565b505050565b61077583838360405180602001604052806000815250610aaa565b505050565b606060006107ae61078a846114f7565b60405160200161079a9190612fd0565b6040516020818303038152906040526116a4565b9050600d80549050816107c1919061374b565b9050600d81815481106107fd577f4e487b7100000000000000000000000000000000000000000000000000000000600052603260045260246000fd5b9060005260206000200180546108129061369f565b80601f016020809104026020016040519081016040528092919081815260200182805461083e9061369f565b801561088b5780601f106108605761010080835404028352916020019161088b565b820191906000526020600020905b81548152906001019060200180831161086e57829003601f168201915b5050505050915050919050565b6000806002600084815260200190815260200160002060009054906101000a900473ffffffffffffffffffffffffffffffffffffffff169050600073ffffffffffffffffffffffffffffffffffffffff168173ffffffffffffffffffffffffffffffffffffffff161415610941576040517f08c379a0000000000000000000000000000000000000000000000000000000008152600401610938906132ae565b60405180910390fd5b80915050919050565b60008073ffffffffffffffffffffffffffffffffffffffff168273ffffffffffffffffffffffffffffffffffffffff1614156109bb576040517f08c379a00000000000000000000000000000000000000000000000000000000081526004016109b29061328e565b60405180910390fd5b600360008373ffffffffffffffffffffffffffffffffffffffff1673ffffffffffffffffffffffffffffffffffffffff168152602001908152602001600020549050919050565b606060018054610a119061369f565b80601f0160208091040260200160405190810160405280929190818152602001828054610a3d9061369f565b8015610a8a5780601f10610a5f57610100808354040283529160200191610a8a565b820191906000526020600020905b815481529060010190602001808311610a6d57829003601f168201915b5050505050905090565b610aa6610a9f611436565b8383611a1c565b5050565b610abb610ab5611436565b836116d7565b610afa576040517f08c379a0000000000000000000000000000000000000000000000000000000008152600401610af19061338e565b60405180910390fd5b610b0684848484611b89565b50505050565b6060610b17826113ca565b610b56576040517f08c379a0000000000000000000000000000000000000000000000000000000008152600401610b4d9061330e565b60405180910390fd5b6000600660008481526020019081526020016000208054610b769061369f565b80601f0160208091040260200160405190810160405280929190818152602001828054610ba29061369f565b8015610bef5780601f10610bc457610100808354040283529160200191610bef565b820191906000526020600020905b815481529060010190602001808311610bd257829003601f168201915b505050505090506000610c00611be5565b9050600081511415610c16578192505050610c59565b600082511115610c4b578082604051602001610c33929190612ecb565b60405160208183030381529060405292505050610c59565b610c5484611bfc565b925050505b919050565b6000600560008473ffffffffffffffffffffffffffffffffffffffff1673ffffffffffffffffffffffffffffffffffffffff16815260200190815260200160002060008373ffffffffffffffffffffffffffffffffffffffff1673ffffffffffffffffffffffffffffffffffffffff16815260200190815260200160002060009054906101000a900460ff16905092915050565b600754610cfe3361094a565b10610d3e576040517f08c379a0000000000000000000000000000000000000000000000000000000008152600401610d359061318e565b60405180910390fd5b6000610d4a600e611ca3565b90506000610e5f826040518060400160405280600a81526020017f46495253545f574f5244000000000000000000000000000000000000000000008152506008805480602002602001604051908101604052809291908181526020016000905b82821015610e56578382906000526020600020018054610dc99061369f565b80601f0160208091040260200160405190810160405280929190818152602001828054610df59061369f565b8015610e425780601f10610e1757610100808354040283529160200191610e42565b820191906000526020600020905b815481529060010190602001808311610e2557829003601f168201915b505050505081526020019060010190610daa565b50505050610668565b90506000610f74836040518060400160405280600b81526020017f5345434f4e445f574f52440000000000000000000000000000000000000000008152506009805480602002602001604051908101604052809291908181526020016000905b82821015610f6b578382906000526020600020018054610ede9061369f565b80601f0160208091040260200160405190810160405280929190818152602001828054610f0a9061369f565b8015610f575780601f10610f2c57610100808354040283529160200191610f57565b820191906000526020600020905b815481529060010190602001808311610f3a57829003601f168201915b505050505081526020019060010190610ebf565b50505050610668565b90506000611089846040518060400160405280600a81526020017f54484952445f574f524400000000000000000000000000000000000000000000815250600a805480602002602001604051908101604052809291908181526020016000905b82821015611080578382906000526020600020018054610ff39061369f565b80601f016020809104026020016040519081016040528092919081815260200182805461101f9061369f565b801561106c5780601f106110415761010080835404028352916020019161106c565b820191906000526020600020905b81548152906001019060200180831161104f57829003601f168201915b505050505081526020019060010190610fd4565b50505050610668565b905060008383836040516020016110a293929190612eef565b604051602081830303815290604052905060006110be8661077a565b90506110e16040518060600160405280603f8152602001613f40603f9139611cb1565b6110ed85858585611d4a565b6110f681611cb1565b6111346040518060400160405280601581526020017f2d2d2d2d2d2d2d2d2d2d2d2d2d2d2d2d2d2d2d2d0a0000000000000000000000815250611cb1565b6000600b82600c8560405160200161114f9493929190612f20565b604051602081830303815290604052905060006111948461116f84611dec565b604051602001611180929190612f69565b604051602081830303815290604052611dec565b90506000816040516020016111a99190612fae565b60405160208183030381529060405290506111f86040518060400160405280601581526020017f0a2d2d2d2d2d2d2d2d2d2d2d2d2d2d2d2d2d2d2d2d0000000000000000000000815250611cb1565b61120181611cb1565b61123f6040518060400160405280601581526020017f2d2d2d2d2d2d2d2d2d2d2d2d2d2d2d2d2d2d2d2d0a0000000000000000000000815250611cb1565b611249338a611faa565b6112538982611fc8565b61125d600e61203c565b611280604051806060016040528060258152602001613edb602591398a33612052565b7fbbedd439cfe8aa51324de58375e6ffccc4ac766d72b9aaeb8a0e4960923ea416338a6040516112b1929190613059565b60405180910390a1505050505050505050565b61135c82826040516024016112da9291906130bf565b6040516020818303038152906040527f319af333000000000000000000000000000000000000000000000000000000007bffffffffffffffffffffffffffffffffffffffffffffffffffffffff19166020820180517bffffffffffffffffffffffffffffffffffffffffffffffffffffffff83818316178352505050506120f1565b5050565b60007f01ffc9a7000000000000000000000000000000000000000000000000000000007bffffffffffffffffffffffffffffffffffffffffffffffffffffffff1916827bffffffffffffffffffffffffffffffffffffffffffffffffffffffff1916149050919050565b60008073ffffffffffffffffffffffffffffffffffffffff166002600084815260200190815260200160002060009054906101000a900473ffffffffffffffffffffffffffffffffffffffff1673ffffffffffffffffffffffffffffffffffffffff1614159050919050565b600033905090565b816004600083815260200190815260200160002060006101000a81548173ffffffffffffffffffffffffffffffffffffffff021916908373ffffffffffffffffffffffffffffffffffffffff160217905550808273ffffffffffffffffffffffffffffffffffffffff166114b183610898565b73ffffffffffffffffffffffffffffffffffffffff167f8c5be1e5ebec7d5bd14f71427d1e84f3dd0314c0f7b2291e5b200ac8c7c3b92560405160405180910390a45050565b6060600082141561153f576040518060400160405280600181526020017f3000000000000000000000000000000000000000000000000000000000000000815250905061169f565b600082905060005b6000821461157157808061155a90613702565b915050600a8261156a919061352a565b9150611547565b60008167ffffffffffffffff8111156115b3577f4e487b7100000000000000000000000000000000000000000000000000000000600052604160045260246000fd5b6040519080825280601f01601f1916602001820160405280156115e55781602001600182028036833780820191505090505b5090505b60008514611698576001826115fe91906135b5565b9150600a8561160d919061374b565b603061161991906134d4565b60f81b818381518110611655577f4e487b7100000000000000000000000000000000000000000000000000000000600052603260045260246000fd5b60200101907effffffffffffffffffffffffffffffffffffffffffffffffffffffffffffff1916908160001a905350600a85611691919061352a565b94506115e9565b8093505050505b919050565b6000816040516020016116b79190612eb4565b6040516020818303038152906040528051906020012060001c9050919050565b60006116e2826113ca565b611721576040517f08c379a00000000000000000000000000000000000000000000000000000000081526004016117189061324e565b60405180910390fd5b600061172c83610898565b90508073ffffffffffffffffffffffffffffffffffffffff168473ffffffffffffffffffffffffffffffffffffffff16148061176e575061176d8185610c5e565b5b806117ac57508373ffffffffffffffffffffffffffffffffffffffff16611794846104cb565b73ffffffffffffffffffffffffffffffffffffffff16145b91505092915050565b8273ffffffffffffffffffffffffffffffffffffffff166117d582610898565b73ffffffffffffffffffffffffffffffffffffffff161461182b576040517f08c379a0000000000000000000000000000000000000000000000000000000008152600401611822906131ce565b60405180910390fd5b600073ffffffffffffffffffffffffffffffffffffffff168273ffffffffffffffffffffffffffffffffffffffff16141561189b576040517f08c379a00000000000000000000000000000000000000000000000000000000081526004016118929061320e565b60405180910390fd5b6118a683838361211a565b6118b160008261143e565b6001600360008573ffffffffffffffffffffffffffffffffffffffff1673ffffffffffffffffffffffffffffffffffffffff168152602001908152602001600020600082825461190191906135b5565b925050819055506001600360008473ffffffffffffffffffffffffffffffffffffffff1673ffffffffffffffffffffffffffffffffffffffff168152602001908152602001600020600082825461195891906134d4565b92505081905550816002600083815260200190815260200160002060006101000a81548173ffffffffffffffffffffffffffffffffffffffff021916908373ffffffffffffffffffffffffffffffffffffffff160217905550808273ffffffffffffffffffffffffffffffffffffffff168473ffffffffffffffffffffffffffffffffffffffff167fddf252ad1be2c89b69c2b068fc378daa952ba7f163c4a11628f55a4df523b3ef60405160405180910390a4611a1783838361211f565b505050565b8173ffffffffffffffffffffffffffffffffffffffff168373ffffffffffffffffffffffffffffffffffffffff161415611a8b576040517f08c379a0000000000000000000000000000000000000000000000000000000008152600401611a829061322e565b60405180910390fd5b80600560008573ffffffffffffffffffffffffffffffffffffffff1673ffffffffffffffffffffffffffffffffffffffff16815260200190815260200160002060008473ffffffffffffffffffffffffffffffffffffffff1673ffffffffffffffffffffffffffffffffffffffff16815260200190815260200160002060006101000a81548160ff0219169083151502179055508173ffffffffffffffffffffffffffffffffffffffff168373ffffffffffffffffffffffffffffffffffffffff167f17307eab39ab6107e8899845ad3d59bd9653f200f220920489ca2b5937696c3183604051611b7c9190613082565b60405180910390a3505050565b611b948484846117b5565b611ba084848484612124565b611bdf576040517f08c379a0000000000000000000000000000000000000000000000000000000008152600401611bd6906131ae565b60405180910390fd5b50505050565b606060405180602001604052806000815250905090565b6060611c07826113ca565b611c46576040517f08c379a0000000000000000000000000000000000000000000000000000000008152600401611c3d9061334e565b60405180910390fd5b6000611c50611be5565b90506000815111611c705760405180602001604052806000815250611c9b565b80611c7a846114f7565b604051602001611c8b929190612ecb565b6040516020818303038152906040525b915050919050565b600081600001549050919050565b611d4781604051602401611cc5919061309d565b6040516020818303038152906040527f41304fac000000000000000000000000000000000000000000000000000000007bffffffffffffffffffffffffffffffffffffffffffffffffffffffff19166020820180517bffffffffffffffffffffffffffffffffffffffffffffffffffffffff83818316178352505050506120f1565b50565b611de684848484604051602401611d6494939291906130ef565b6040516020818303038152906040527fde68f20a000000000000000000000000000000000000000000000000000000007bffffffffffffffffffffffffffffffffffffffffffffffffffffffff19166020820180517bffffffffffffffffffffffffffffffffffffffffffffffffffffffff83818316178352505050506120f1565b50505050565b60606000825190506000811415611e155760405180602001604052806000815250915050611fa5565b60006003600283611e2691906134d4565b611e30919061352a565b6004611e3c919061355b565b90506000602082611e4d91906134d4565b67ffffffffffffffff811115611e8c577f4e487b7100000000000000000000000000000000000000000000000000000000600052604160045260246000fd5b6040519080825280601f01601f191660200182016040528015611ebe5781602001600182028036833780820191505090505b5090506000604051806060016040528060408152602001613f00604091399050600181016020830160005b86811015611f625760038101905062ffffff818a015116603f8160121c168401518060081b905060ff603f83600c1c1686015116810190508060081b905060ff603f8360061c1686015116810190508060081b905060ff603f831686015116810190508060e01b90508084526004840193505050611ee9565b506003860660018114611f7c5760028114611f8c57611f97565b613d3d60f01b6002830352611f97565b603d60f81b60018303525b508484525050819450505050505b919050565b611fc48282604051806020016040528060008152506122bb565b5050565b611fd1826113ca565b612010576040517f08c379a0000000000000000000000000000000000000000000000000000000008152600401612007906132ce565b60405180910390fd5b80600660008481526020019081526020016000209080519060200190612037929190612513565b505050565b6001816000016000828254019250508190555050565b6120ec83838360405160240161206a93929190613150565b6040516020818303038152906040527fe3849f79000000000000000000000000000000000000000000000000000000007bffffffffffffffffffffffffffffffffffffffffffffffffffffffff19166020820180517bffffffffffffffffffffffffffffffffffffffffffffffffffffffff83818316178352505050506120f1565b505050565b60008151905060006a636f6e736f6c652e6c6f679050602083016000808483855afa5050505050565b505050565b505050565b60006121458473ffffffffffffffffffffffffffffffffffffffff16612316565b156122ae578373ffffffffffffffffffffffffffffffffffffffff1663150b7a0261216e611436565b8786866040518563ffffffff1660e01b8152600401612190949392919061300d565b602060405180830381600087803b1580156121aa57600080fd5b505af19250505080156121db57506040513d601f19601f820116820180604052508101906121d8919061296f565b60015b61225e573d806000811461220b576040519150601f19603f3d011682016040523d82523d6000602084013e612210565b606091505b50600081511415612256576040517f08c379a000000000000000000000000000000000000000000000000000000000815260040161224d906131ae565b60405180910390fd5b805181602001fd5b63150b7a0260e01b7bffffffffffffffffffffffffffffffffffffffffffffffffffffffff1916817bffffffffffffffffffffffffffffffffffffffffffffffffffffffff1916149150506122b3565b600190505b949350505050565b6122c58383612339565b6122d26000848484612124565b612311576040517f08c379a0000000000000000000000000000000000000000000000000000000008152600401612308906131ae565b60405180910390fd5b505050565b6000808273ffffffffffffffffffffffffffffffffffffffff163b119050919050565b600073ffffffffffffffffffffffffffffffffffffffff168273ffffffffffffffffffffffffffffffffffffffff1614156123a9576040517f08c379a00000000000000000000000000000000000000000000000000000000081526004016123a0906132ee565b60405180910390fd5b6123b2816113ca565b156123f2576040517f08c379a00000000000000000000000000000000000000000000000000000000081526004016123e9906131ee565b60405180910390fd5b6123fe6000838361211a565b6001600360008473ffffffffffffffffffffffffffffffffffffffff1673ffffffffffffffffffffffffffffffffffffffff168152602001908152602001600020600082825461244e91906134d4565b92505081905550816002600083815260200190815260200160002060006101000a81548173ffffffffffffffffffffffffffffffffffffffff021916908373ffffffffffffffffffffffffffffffffffffffff160217905550808273ffffffffffffffffffffffffffffffffffffffff16600073ffffffffffffffffffffffffffffffffffffffff167fddf252ad1be2c89b69c2b068fc378daa952ba7f163c4a11628f55a4df523b3ef60405160405180910390a461250f6000838361211f565b5050565b82805461251f9061369f565b90600052602060002090601f0160209004810192826125415760008555612588565b82601f1061255a57805160ff1916838001178555612588565b82800160010185558215612588579182015b8281111561258757825182559160200191906001019061256c565b5b5090506125959190612599565b5090565b5b808211156125b257600081600090555060010161259a565b5090565b60006125c96125c4846133ee565b6133c9565b905080838252602082019050828560208602820111156125e857600080fd5b60005b8581101561263257813567ffffffffffffffff81111561260a57600080fd5b8086016126178982612760565b855260208501945060208401935050506001810190506125eb565b5050509392505050565b600061264f61264a8461341a565b6133c9565b90508281526020810184848401111561266757600080fd5b61267284828561365d565b509392505050565b600061268d6126888461344b565b6133c9565b9050828152602081018484840111156126a557600080fd5b6126b084828561365d565b509392505050565b6000813590506126c781613e7e565b92915050565b600082601f8301126126de57600080fd5b81356126ee8482602086016125b6565b91505092915050565b60008135905061270681613e95565b92915050565b60008135905061271b81613eac565b92915050565b60008151905061273081613eac565b92915050565b600082601f83011261274757600080fd5b813561275784826020860161263c565b91505092915050565b600082601f83011261277157600080fd5b813561278184826020860161267a565b91505092915050565b60008135905061279981613ec3565b92915050565b6000602082840312156127b157600080fd5b60006127bf848285016126b8565b91505092915050565b600080604083850312156127db57600080fd5b60006127e9858286016126b8565b92505060206127fa858286016126b8565b9150509250929050565b60008060006060848603121561281957600080fd5b6000612827868287016126b8565b9350506020612838868287016126b8565b92505060406128498682870161278a565b9150509250925092565b6000806000806080858703121561286957600080fd5b6000612877878288016126b8565b9450506020612888878288016126b8565b93505060406128998782880161278a565b925050606085013567ffffffffffffffff8111156128b657600080fd5b6128c287828801612736565b91505092959194509250565b600080604083850312156128e157600080fd5b60006128ef858286016126b8565b9250506020612900858286016126f7565b9150509250929050565b6000806040838503121561291d57600080fd5b600061292b858286016126b8565b925050602061293c8582860161278a565b9150509250929050565b60006020828403121561295857600080fd5b60006129668482850161270c565b91505092915050565b60006020828403121561298157600080fd5b600061298f84828501612721565b91505092915050565b6000602082840312156129aa57600080fd5b60006129b88482850161278a565b91505092915050565b6000806000606084860312156129d657600080fd5b60006129e48682870161278a565b935050602084013567ffffffffffffffff811115612a0157600080fd5b612a0d86828701612760565b925050604084013567ffffffffffffffff811115612a2a57600080fd5b612a36868287016126cd565b9150509250925092565b612a49816135e9565b82525050565b612a58816135fb565b82525050565b6000612a6982613491565b612a7381856134a7565b9350612a8381856020860161366c565b612a8c81613838565b840191505092915050565b6000612aa28261349c565b612aac81856134b8565b9350612abc81856020860161366c565b612ac581613838565b840191505092915050565b6000612adb8261349c565b612ae581856134c9565b9350612af581856020860161366c565b80840191505092915050565b60008154612b0e8161369f565b612b1881866134c9565b94506001821660008114612b335760018114612b4457612b77565b60ff19831686528186019350612b77565b612b4d8561347c565b60005b83811015612b6f57815481890152600182019150602081019050612b50565b838801955050505b50505092915050565b6000612b8d6025836134b8565b9150612b9882613849565b604082019050919050565b6000612bb06032836134b8565b9150612bbb82613898565b604082019050919050565b6000612bd36025836134b8565b9150612bde826138e7565b604082019050919050565b6000612bf6601c836134b8565b9150612c0182613936565b602082019050919050565b6000612c196024836134b8565b9150612c248261395f565b604082019050919050565b6000612c3c6019836134b8565b9150612c47826139ae565b602082019050919050565b6000612c5f6063836134c9565b9150612c6a826139d7565b606382019050919050565b6000612c82602c836134b8565b9150612c8d82613a72565b604082019050919050565b6000612ca5600d836134c9565b9150612cb082613ac1565b600d82019050919050565b6000612cc86038836134b8565b9150612cd382613aea565b604082019050919050565b6000612ceb602a836134b8565b9150612cf682613b39565b604082019050919050565b6000612d0e6029836134b8565b9150612d1982613b88565b604082019050919050565b6000612d31602e836134b8565b9150612d3c82613bd7565b604082019050919050565b6000612d546002836134c9565b9150612d5f82613c26565b600282019050919050565b6000612d776020836134b8565b9150612d8282613c4f565b602082019050919050565b6000612d9a6031836134b8565b9150612da582613c78565b604082019050919050565b6000612dbd602c836134b8565b9150612dc882613cc7565b604082019050919050565b6000612de0602f836134b8565b9150612deb82613d16565b604082019050919050565b6000612e03600a836134c9565b9150612e0e82613d65565b600a82019050919050565b6000612e266021836134b8565b9150612e3182613d8e565b604082019050919050565b6000612e49601d836134c9565b9150612e5482613ddd565b601d82019050919050565b6000612e6c6031836134b8565b9150612e7782613e06565b604082019050919050565b6000612e8f6005836134c9565b9150612e9a82613e55565b600582019050919050565b612eae81613653565b82525050565b6000612ec08284612ad0565b915081905092915050565b6000612ed78285612ad0565b9150612ee38284612ad0565b91508190509392505050565b6000612efb8286612ad0565b9150612f078285612ad0565b9150612f138284612ad0565b9150819050949350505050565b6000612f2c8287612b01565b9150612f388286612ad0565b9150612f448285612b01565b9150612f508284612ad0565b9150612f5b82612c98565b915081905095945050505050565b6000612f7482612df6565b9150612f808285612ad0565b9150612f8b82612c52565b9150612f978284612ad0565b9150612fa282612d47565b91508190509392505050565b6000612fb982612e3c565b9150612fc58284612ad0565b915081905092915050565b6000612fdb82612e82565b9150612fe78284612ad0565b915081905092915050565b60006020820190506130076000830184612a40565b92915050565b60006080820190506130226000830187612a40565b61302f6020830186612a40565b61303c6040830185612ea5565b818103606083015261304e8184612a5e565b905095945050505050565b600060408201905061306e6000830185612a40565b61307b6020830184612ea5565b9392505050565b60006020820190506130976000830184612a4f565b92915050565b600060208201905081810360008301526130b78184612a97565b905092915050565b600060408201905081810360008301526130d98185612a97565b90506130e86020830184612a40565b9392505050565b600060808201905081810360008301526131098187612a97565b9050818103602083015261311d8186612a97565b905081810360408301526131318185612a97565b905081810360608301526131458184612a97565b905095945050505050565b6000606082019050818103600083015261316a8186612a97565b90506131796020830185612ea5565b6131866040830184612a40565b949350505050565b600060208201905081810360008301526131a781612b80565b9050919050565b600060208201905081810360008301526131c781612ba3565b9050919050565b600060208201905081810360008301526131e781612bc6565b9050919050565b6000602082019050818103600083015261320781612be9565b9050919050565b6000602082019050818103600083015261322781612c0c565b9050919050565b6000602082019050818103600083015261324781612c2f565b9050919050565b6000602082019050818103600083015261326781612c75565b9050919050565b6000602082019050818103600083015261328781612cbb565b9050919050565b600060208201905081810360008301526132a781612cde565b9050919050565b600060208201905081810360008301526132c781612d01565b9050919050565b600060208201905081810360008301526132e781612d24565b9050919050565b6000602082019050818103600083015261330781612d6a565b9050919050565b6000602082019050818103600083015261332781612d8d565b9050919050565b6000602082019050818103600083015261334781612db0565b9050919050565b6000602082019050818103600083015261336781612dd3565b9050919050565b6000602082019050818103600083015261338781612e19565b9050919050565b600060208201905081810360008301526133a781612e5f565b9050919050565b60006020820190506133c36000830184612ea5565b92915050565b60006133d36133e4565b90506133df82826136d1565b919050565b6000604051905090565b600067ffffffffffffffff82111561340957613408613809565b5b602082029050602081019050919050565b600067ffffffffffffffff82111561343557613434613809565b5b61343e82613838565b9050602081019050919050565b600067ffffffffffffffff82111561346657613465613809565b5b61346f82613838565b9050602081019050919050565b60008190508160005260206000209050919050565b600081519050919050565b600081519050919050565b600082825260208201905092915050565b600082825260208201905092915050565b600081905092915050565b60006134df82613653565b91506134ea83613653565b9250827fffffffffffffffffffffffffffffffffffffffffffffffffffffffffffffffff0382111561351f5761351e61377c565b5b828201905092915050565b600061353582613653565b915061354083613653565b9250826135505761354f6137ab565b5b828204905092915050565b600061356682613653565b915061357183613653565b9250817fffffffffffffffffffffffffffffffffffffffffffffffffffffffffffffffff04831182151516156135aa576135a961377c565b5b828202905092915050565b60006135c082613653565b91506135cb83613653565b9250828210156135de576135dd61377c565b5b828203905092915050565b60006135f482613633565b9050919050565b60008115159050919050565b60007fffffffff0000000000000000000000000000000000000000000000000000000082169050919050565b600073ffffffffffffffffffffffffffffffffffffffff82169050919050565b6000819050919050565b82818337600083830152505050565b60005b8381101561368a57808201518184015260208101905061366f565b83811115613699576000848401525b50505050565b600060028204905060018216806136b757607f821691505b602082108114156136cb576136ca6137da565b5b50919050565b6136da82613838565b810181811067ffffffffffffffff821117156136f9576136f8613809565b5b80604052505050565b600061370d82613653565b91507fffffffffffffffffffffffffffffffffffffffffffffffffffffffffffffffff8214156137405761373f61377c565b5b600182019050919050565b600061375682613653565b915061376183613653565b925082613771576137706137ab565b5b828206905092915050565b7f4e487b7100000000000000000000000000000000000000000000000000000000600052601160045260246000fd5b7f4e487b7100000000000000000000000000000000000000000000000000000000600052601260045260246000fd5b7f4e487b7100000000000000000000000000000000000000000000000000000000600052602260045260246000fd5b7f4e487b7100000000000000000000000000000000000000000000000000000000600052604160045260246000fd5b6000601f19601f8301169050919050565b7f4f6e6c792032204e4654732063616e206265206d696e7465642070657220616360008201527f636f756e74000000000000000000000000000000000000000000000000000000602082015250565b7f4552433732313a207472616e7366657220746f206e6f6e20455243373231526560008201527f63656976657220696d706c656d656e7465720000000000000000000000000000602082015250565b7f4552433732313a207472616e736665722066726f6d20696e636f72726563742060008201527f6f776e6572000000000000000000000000000000000000000000000000000000602082015250565b7f4552433732313a20746f6b656e20616c7265616479206d696e74656400000000600082015250565b7f4552433732313a207472616e7366657220746f20746865207a65726f2061646460008201527f7265737300000000000000000000000000000000000000000000000000000000602082015250565b7f4552433732313a20617070726f766520746f2063616c6c657200000000000000600082015250565b7f222c20226465736372697074696f6e223a20224120686967686c79206163636c60008201527f61696d656420636f6c6c656374696f6e206f6620737175617265732e222c202260208201527f696d616765223a2022646174613a696d6167652f7376672b786d6c3b6261736560408201527f36342c0000000000000000000000000000000000000000000000000000000000606082015250565b7f4552433732313a206f70657261746f7220717565727920666f72206e6f6e657860008201527f697374656e7420746f6b656e0000000000000000000000000000000000000000602082015250565b7f3c2f746578743e3c2f7376673e00000000000000000000000000000000000000600082015250565b7f4552433732313a20617070726f76652063616c6c6572206973206e6f74206f7760008201527f6e6572206e6f7220617070726f76656420666f7220616c6c0000000000000000602082015250565b7f4552433732313a2062616c616e636520717565727920666f7220746865207a6560008201527f726f206164647265737300000000000000000000000000000000000000000000602082015250565b7f4552433732313a206f776e657220717565727920666f72206e6f6e657869737460008201527f656e7420746f6b656e0000000000000000000000000000000000000000000000602082015250565b7f45524337323155524953746f726167653a2055524920736574206f66206e6f6e60008201527f6578697374656e7420746f6b656e000000000000000000000000000000000000602082015250565b7f227d000000000000000000000000000000000000000000000000000000000000600082015250565b7f4552433732313a206d696e7420746f20746865207a65726f2061646472657373600082015250565b7f45524337323155524953746f726167653a2055524920717565727920666f722060008201527f6e6f6e6578697374656e7420746f6b656e000000000000000000000000000000602082015250565b7f4552433732313a20617070726f76656420717565727920666f72206e6f6e657860008201527f697374656e7420746f6b656e0000000000000000000000000000000000000000602082015250565b7f4552433732314d657461646174613a2055524920717565727920666f72206e6f60008201527f6e6578697374656e7420746f6b656e0000000000000000000000000000000000602082015250565b7f7b226e616d65223a202200000000000000000000000000000000000000000000600082015250565b7f4552433732313a20617070726f76616c20746f2063757272656e74206f776e6560008201527f7200000000000000000000000000000000000000000000000000000000000000602082015250565b7f646174613a6170706c69636174696f6e2f6a736f6e3b6261736536342c000000600082015250565b7f4552433732313a207472616e736665722063616c6c6572206973206e6f74206f60008201527f776e6572206e6f7220617070726f766564000000000000000000000000000000602082015250565b7f434f4c4f52000000000000000000000000000000000000000000000000000000600082015250565b613e87816135e9565b8114613e9257600080fd5b50565b613e9e816135fb565b8114613ea957600080fd5b50565b613eb581613607565b8114613ec057600080fd5b50565b613ecc81613653565b8114613ed757600080fd5b5056fe416e204e465420772f20494420257320686173206265656e206d696e74656420746f2025734142434445464748494a4b4c4d4e4f505152535455565758595a6162636465666768696a6b6c6d6e6f707172737475767778797a303132333435363738392b2f0a2d2d2d2d2d2d2d2d66697273742c207365636f6e642c2074686972642c20636f6d62696e6564576f726420616e6420436f6c6f722d2d2d2d2d2d2d2d2d2da26469706673582212206dcd80d57ba6e72f0477d889676cd0555e1d7b3cb091c5a9fb22cfc27079a98b64736f6c634300080400333c73766720786d6c6e733d27687474703a2f2f7777772e77332e6f72672f323030302f73766727207072657365727665417370656374526174696f3d27784d696e594d696e206d656574272076696577426f783d273020302033353020333530273e3c7374796c653e2e62617365207b2066696c6c3a2077686974653b20666f6e742d66616d696c793a2073657269663b20666f6e742d73697a653a20323470783b207d3c2f7374796c653e3c726563742077696474683d273130302527206865696768743d2731303025272066696c6c3d27272f3e3c7465787420783d273530252720793d273530252720636c6173733d27626173652720646f6d696e616e742d626173656c696e653d276d6964646c652720746578742d616e63686f723d276d6964646c65273e",
  "linkReferences": {},
  "deployedLinkReferences": {}
}