{
  "_format": "hh-sol-artifact-1",
  "contractName": "DeNFT",
  "sourceName": "contracts/DeNFT.sol",
  "abi": [
    {
      "inputs": [],
      "stateMutability": "nonpayable",
      "type": "constructor"
    },
    {
      "anonymous": false,
      "inputs": [
        {
          "indexed": true,
          "internalType": "address",
          "name": "owner",
          "type": "address"
        },
        {
          "indexed": true,
          "internalType": "address",
          "name": "approved",
          "type": "address"
        },
        {
          "indexed": true,
          "internalType": "uint256",
          "name": "tokenId",
          "type": "uint256"
        }
      ],
      "name": "Approval",
      "type": "event"
    },
    {
      "anonymous": false,
      "inputs": [
        {
          "indexed": true,
          "internalType": "address",
          "name": "owner",
          "type": "address"
        },
        {
          "indexed": true,
          "internalType": "address",
          "name": "operator",
          "type": "address"
        },
        {
          "indexed": false,
          "internalType": "bool",
          "name": "approved",
          "type": "bool"
        }
      ],
      "name": "ApprovalForAll",
      "type": "event"
    },
    {
      "anonymous": false,
      "inputs": [
        {
          "indexed": true,
          "internalType": "address",
          "name": "from",
          "type": "address"
        },
        {
          "indexed": true,
          "internalType": "address",
          "name": "to",
          "type": "address"
        },
        {
          "indexed": true,
          "internalType": "uint256",
          "name": "tokenId",
          "type": "uint256"
        }
      ],
      "name": "Transfer",
      "type": "event"
    },
    {
      "inputs": [
        {
          "internalType": "address",
          "name": "to",
          "type": "address"
        },
        {
          "internalType": "uint256",
          "name": "tokenId",
          "type": "uint256"
        }
      ],
      "name": "approve",
      "outputs": [],
      "stateMutability": "nonpayable",
      "type": "function"
    },
    {
      "inputs": [
        {
          "internalType": "address",
          "name": "owner",
          "type": "address"
        }
      ],
      "name": "balanceOf",
      "outputs": [
        {
          "internalType": "uint256",
          "name": "",
          "type": "uint256"
        }
      ],
      "stateMutability": "view",
      "type": "function"
    },
    {
      "inputs": [
        {
          "internalType": "uint256",
          "name": "tokenId",
          "type": "uint256"
        }
      ],
      "name": "getApproved",
      "outputs": [
        {
          "internalType": "address",
          "name": "",
          "type": "address"
        }
      ],
      "stateMutability": "view",
      "type": "function"
    },
    {
      "inputs": [
        {
          "internalType": "address",
          "name": "owner",
          "type": "address"
        },
        {
          "internalType": "address",
          "name": "operator",
          "type": "address"
        }
      ],
      "name": "isApprovedForAll",
      "outputs": [
        {
          "internalType": "bool",
          "name": "",
          "type": "bool"
        }
      ],
      "stateMutability": "view",
      "type": "function"
    },
    {
      "inputs": [],
      "name": "mintAnNFT",
      "outputs": [],
      "stateMutability": "nonpayable",
      "type": "function"
    },
    {
      "inputs": [],
      "name": "name",
      "outputs": [
        {
          "internalType": "string",
          "name": "",
          "type": "string"
        }
      ],
      "stateMutability": "view",
      "type": "function"
    },
    {
      "inputs": [
        {
          "internalType": "uint256",
          "name": "tokenId",
          "type": "uint256"
        }
      ],
      "name": "ownerOf",
      "outputs": [
        {
          "internalType": "address",
          "name": "",
          "type": "address"
        }
      ],
      "stateMutability": "view",
      "type": "function"
    },
    {
      "inputs": [
        {
          "internalType": "uint256",
          "name": "tokenId",
          "type": "uint256"
        },
        {
          "internalType": "string",
          "name": "initalword",
          "type": "string"
        },
        {
          "internalType": "string[]",
          "name": "wordsArr",
          "type": "string[]"
        }
      ],
      "name": "pickRandomWordFromArr",
      "outputs": [
        {
          "internalType": "string",
          "name": "",
          "type": "string"
        }
      ],
      "stateMutability": "pure",
      "type": "function"
    },
    {
      "inputs": [
        {
          "internalType": "address",
          "name": "from",
          "type": "address"
        },
        {
          "internalType": "address",
          "name": "to",
          "type": "address"
        },
        {
          "internalType": "uint256",
          "name": "tokenId",
          "type": "uint256"
        }
      ],
      "name": "safeTransferFrom",
      "outputs": [],
      "stateMutability": "nonpayable",
      "type": "function"
    },
    {
      "inputs": [
        {
          "internalType": "address",
          "name": "from",
          "type": "address"
        },
        {
          "internalType": "address",
          "name": "to",
          "type": "address"
        },
        {
          "internalType": "uint256",
          "name": "tokenId",
          "type": "uint256"
        },
        {
          "internalType": "bytes",
          "name": "_data",
          "type": "bytes"
        }
      ],
      "name": "safeTransferFrom",
      "outputs": [],
      "stateMutability": "nonpayable",
      "type": "function"
    },
    {
      "inputs": [
        {
          "internalType": "address",
          "name": "operator",
          "type": "address"
        },
        {
          "internalType": "bool",
          "name": "approved",
          "type": "bool"
        }
      ],
      "name": "setApprovalForAll",
      "outputs": [],
      "stateMutability": "nonpayable",
      "type": "function"
    },
    {
      "inputs": [
        {
          "internalType": "bytes4",
          "name": "interfaceId",
          "type": "bytes4"
        }
      ],
      "name": "supportsInterface",
      "outputs": [
        {
          "internalType": "bool",
          "name": "",
          "type": "bool"
        }
      ],
      "stateMutability": "view",
      "type": "function"
    },
    {
      "inputs": [],
      "name": "symbol",
      "outputs": [
        {
          "internalType": "string",
          "name": "",
          "type": "string"
        }
      ],
      "stateMutability": "view",
      "type": "function"
    },
    {
      "inputs": [
        {
          "internalType": "uint256",
          "name": "tokenId",
          "type": "uint256"
        }
      ],
      "name": "tokenURI",
      "outputs": [
        {
          "internalType": "string",
          "name": "",
          "type": "string"
        }
      ],
      "stateMutability": "view",
      "type": "function"
    },
    {
      "inputs": [
        {
          "internalType": "address",
          "name": "from",
          "type": "address"
        },
        {
          "internalType": "address",
          "name": "to",
          "type": "address"
        },
        {
          "internalType": "uint256",
          "name": "tokenId",
          "type": "uint256"
        }
      ],
      "name": "transferFrom",
      "outputs": [],
      "stateMutability": "nonpayable",
      "type": "function"
    }
  ],
  "bytecode": "0x60806040526040518061018001604052806040518060400160405280600381526020017f526564000000000000000000000000000000000000000000000000000000000081525081526020016040518060400160405280600881526020017f426c61636b52656400000000000000000000000000000000000000000000000081525081526020016040518060400160405280600681526020017f59656c6c6f77000000000000000000000000000000000000000000000000000081525081526020016040518060400160405280600a81526020017f5665727959656c6c6f770000000000000000000000000000000000000000000081525081526020016040518060400160405280600481526020017f426c75650000000000000000000000000000000000000000000000000000000081525081526020016040518060400160405280600881526020017f4461726b426c756500000000000000000000000000000000000000000000000081525081526020016040518060400160405280600581526020017f42726f776e00000000000000000000000000000000000000000000000000000081525081526020016040518060400160405280600a81526020017f426c61636b42726f776e0000000000000000000000000000000000000000000081525081526020016040518060400160405280600681526020017f507572706c65000000000000000000000000000000000000000000000000000081525081526020016040518060400160405280600981526020017f526564507572706c65000000000000000000000000000000000000000000000081525081526020016040518060400160405280600681526020017f53696c766572000000000000000000000000000000000000000000000000000081525081526020016040518060400160405280600d81526020017f426c61636b566572794d75636800000000000000000000000000000000000000815250815250600790600c620002e49291906200085c565b506040518060c001604052806040518060400160405280600681526020017f496365746561000000000000000000000000000000000000000000000000000081525081526020016040518060400160405280600a81526020017f566572794963657465610000000000000000000000000000000000000000000081525081526020016040518060400160405280600581526020017f417972616e00000000000000000000000000000000000000000000000000000081525081526020016040518060400160405280600981526020017f56657279417972616e000000000000000000000000000000000000000000000081525081526020016040518060400160405280600781526020017f4e6573636166650000000000000000000000000000000000000000000000000081525081526020016040518060400160405280600e81526020017f5475726b69736820436f66666565000000000000000000000000000000000000815250815250600890600662000462929190620008c3565b506040518061010001604052806040518060400160405280600781526020017f546f6d6174746f0000000000000000000000000000000000000000000000000081525081526020016040518060400160405280600481526020017f4f6372610000000000000000000000000000000000000000000000000000000081525081526020016040518060400160405280600681526020017f506f7461746f000000000000000000000000000000000000000000000000000081525081526020016040518060400160405280600781526020017f526564646973680000000000000000000000000000000000000000000000000081525081526020016040518060400160405280600781526020017f436162626167650000000000000000000000000000000000000000000000000081525081526020016040518060400160405280600b81526020017f477265656e4368696c6c6900000000000000000000000000000000000000000081525081526020016040518060400160405280600a81526020017f566572794368696c6c690000000000000000000000000000000000000000000081525081526020016040518060400160405280600981526020017f5265644368696c6c6900000000000000000000000000000000000000000000008152508152506009906008620006579291906200092a565b5060405180610160016040528061012f81526020016200489661012f9139600a90805190602001906200068c92919062000991565b503480156200069a57600080fd5b506040518060400160405280600581526020017f44654e66740000000000000000000000000000000000000000000000000000008152506040518060400160405280600581526020017f44454e465400000000000000000000000000000000000000000000000000000081525081600090805190602001906200071f92919062000991565b5080600190805190602001906200073892919062000991565b505050620007876040518060400160405280601c81526020017f696e6974696e67204e465420636f6e74726163742c204f776e65723d00000000815250336200078d60201b620010e71760201c565b62000c31565b6200082f8282604051602401620007a692919062000b01565b6040516020818303038152906040527f319af333000000000000000000000000000000000000000000000000000000007bffffffffffffffffffffffffffffffffffffffffffffffffffffffff19166020820180517bffffffffffffffffffffffffffffffffffffffffffffffffffffffff83818316178352505050506200083360201b60201c565b5050565b60008151905060006a636f6e736f6c652e6c6f679050602083016000808483855afa5050505050565b828054828255906000526020600020908101928215620008b0579160200282015b82811115620008af5782518290805190602001906200089e92919062000991565b50916020019190600101906200087d565b5b509050620008bf919062000a22565b5090565b82805482825590600052602060002090810192821562000917579160200282015b82811115620009165782518290805190602001906200090592919062000991565b5091602001919060010190620008e4565b5b50905062000926919062000a22565b5090565b8280548282559060005260206000209081019282156200097e579160200282015b828111156200097d5782518290805190602001906200096c92919062000991565b50916020019190600101906200094b565b5b5090506200098d919062000a22565b5090565b8280546200099f9062000bbb565b90600052602060002090601f016020900481019282620009c3576000855562000a0f565b82601f10620009de57805160ff191683800117855562000a0f565b8280016001018555821562000a0f579182015b8281111562000a0e578251825591602001919060010190620009f1565b5b50905062000a1e919062000a4a565b5090565b5b8082111562000a46576000818162000a3c919062000a69565b5060010162000a23565b5090565b5b8082111562000a6557600081600090555060010162000a4b565b5090565b50805462000a779062000bbb565b6000825580601f1062000a8b575062000aac565b601f01602090049060005260206000209081019062000aab919062000a4a565b5b50565b62000aba8162000b51565b82525050565b600062000acd8262000b35565b62000ad9818562000b40565b935062000aeb81856020860162000b85565b62000af68162000c20565b840191505092915050565b6000604082019050818103600083015262000b1d818562000ac0565b905062000b2e602083018462000aaf565b9392505050565b600081519050919050565b600082825260208201905092915050565b600062000b5e8262000b65565b9050919050565b600073ffffffffffffffffffffffffffffffffffffffff82169050919050565b60005b8381101562000ba557808201518184015260208101905062000b88565b8381111562000bb5576000848401525b50505050565b6000600282049050600182168062000bd457607f821691505b6020821081141562000beb5762000bea62000bf1565b5b50919050565b7f4e487b7100000000000000000000000000000000000000000000000000000000600052602260045260246000fd5b6000601f19601f8301169050919050565b613c558062000c416000396000f3fe608060405234801561001057600080fd5b50600436106100f55760003560e01c80636352211e11610097578063b88d4fde11610066578063b88d4fde14610296578063c87b56dd146102b2578063e985e9c5146102e2578063f3d704c814610312576100f5565b80636352211e146101fc57806370a082311461022c57806395d89b411461025c578063a22cb4651461027a576100f5565b8063095ea7b3116100d3578063095ea7b31461017857806321bef32d1461019457806323b872dd146101c457806342842e0e146101e0576100f5565b806301ffc9a7146100fa57806306fdde031461012a578063081812fc14610148575b600080fd5b610114600480360381019061010f9190612769565b61031c565b6040516101219190612dfa565b60405180910390f35b6101326103fe565b60405161013f9190612e15565b60405180910390f35b610162600480360381019061015d91906127bb565b610490565b60405161016f9190612d93565b60405180910390f35b610192600480360381019061018d919061272d565b610515565b005b6101ae60048036038101906101a991906127e4565b61062d565b6040516101bb9190612e15565b60405180910390f35b6101de60048036038101906101d99190612627565b6106bf565b005b6101fa60048036038101906101f59190612627565b61071f565b005b610216600480360381019061021191906127bb565b61073f565b6040516102239190612d93565b60405180910390f35b610246600480360381019061024191906125c2565b6107f1565b6040516102539190613106565b60405180910390f35b6102646108a9565b6040516102719190612e15565b60405180910390f35b610294600480360381019061028f91906126f1565b61093b565b005b6102b060048036038101906102ab9190612676565b610951565b005b6102cc60048036038101906102c791906127bb565b6109b3565b6040516102d99190612e15565b60405180910390f35b6102fc60048036038101906102f791906125eb565b610b05565b6040516103099190612dfa565b60405180910390f35b61031a610b99565b005b60007f80ac58cd000000000000000000000000000000000000000000000000000000007bffffffffffffffffffffffffffffffffffffffffffffffffffffffff1916827bffffffffffffffffffffffffffffffffffffffffffffffffffffffff191614806103e757507f5b5e139f000000000000000000000000000000000000000000000000000000007bffffffffffffffffffffffffffffffffffffffffffffffffffffffff1916827bffffffffffffffffffffffffffffffffffffffffffffffffffffffff1916145b806103f757506103f682611183565b5b9050919050565b60606000805461040d906133f7565b80601f0160208091040260200160405190810160405280929190818152602001828054610439906133f7565b80156104865780601f1061045b57610100808354040283529160200191610486565b820191906000526020600020905b81548152906001019060200180831161046957829003601f168201915b5050505050905090565b600061049b826111ed565b6104da576040517f08c379a00000000000000000000000000000000000000000000000000000000081526004016104d190613086565b60405180910390fd5b6004600083815260200190815260200160002060009054906101000a900473ffffffffffffffffffffffffffffffffffffffff169050919050565b60006105208261073f565b90508073ffffffffffffffffffffffffffffffffffffffff168373ffffffffffffffffffffffffffffffffffffffff161415610591576040517f08c379a0000000000000000000000000000000000000000000000000000000008152600401610588906130c6565b60405180910390fd5b8073ffffffffffffffffffffffffffffffffffffffff166105b0611259565b73ffffffffffffffffffffffffffffffffffffffff1614806105df57506105de816105d9611259565b610b05565b5b61061e576040517f08c379a000000000000000000000000000000000000000000000000000000000815260040161061590612fc6565b60405180910390fd5b6106288383611261565b505050565b606060006106638461063e8761131a565b60405160200161064f929190612ca8565b6040516020818303038152906040526114c7565b905082518161067291906134a3565b90508281815181106106ad577f4e487b7100000000000000000000000000000000000000000000000000000000600052603260045260246000fd5b60200260200101519150509392505050565b6106d06106ca611259565b826114fa565b61070f576040517f08c379a0000000000000000000000000000000000000000000000000000000008152600401610706906130e6565b60405180910390fd5b61071a8383836115d8565b505050565b61073a83838360405180602001604052806000815250610951565b505050565b6000806002600084815260200190815260200160002060009054906101000a900473ffffffffffffffffffffffffffffffffffffffff169050600073ffffffffffffffffffffffffffffffffffffffff168173ffffffffffffffffffffffffffffffffffffffff1614156107e8576040517f08c379a00000000000000000000000000000000000000000000000000000000081526004016107df90613006565b60405180910390fd5b80915050919050565b60008073ffffffffffffffffffffffffffffffffffffffff168273ffffffffffffffffffffffffffffffffffffffff161415610862576040517f08c379a000000000000000000000000000000000000000000000000000000000815260040161085990612fe6565b60405180910390fd5b600360008373ffffffffffffffffffffffffffffffffffffffff1673ffffffffffffffffffffffffffffffffffffffff168152602001908152602001600020549050919050565b6060600180546108b8906133f7565b80601f01602080910402602001604051908101604052809291908181526020018280546108e4906133f7565b80156109315780601f1061090657610100808354040283529160200191610931565b820191906000526020600020905b81548152906001019060200180831161091457829003601f168201915b5050505050905090565b61094d610946611259565b838361183f565b5050565b61096261095c611259565b836114fa565b6109a1576040517f08c379a0000000000000000000000000000000000000000000000000000000008152600401610998906130e6565b60405180910390fd5b6109ad848484846119ac565b50505050565b60606109be826111ed565b6109fd576040517f08c379a00000000000000000000000000000000000000000000000000000000081526004016109f490613066565b60405180910390fd5b6000600660008481526020019081526020016000208054610a1d906133f7565b80601f0160208091040260200160405190810160405280929190818152602001828054610a49906133f7565b8015610a965780601f10610a6b57610100808354040283529160200191610a96565b820191906000526020600020905b815481529060010190602001808311610a7957829003601f168201915b505050505090506000610aa7611a08565b9050600081511415610abd578192505050610b00565b600082511115610af2578082604051602001610ada929190612ca8565b60405160208183030381529060405292505050610b00565b610afb84611a1f565b925050505b919050565b6000600560008473ffffffffffffffffffffffffffffffffffffffff1673ffffffffffffffffffffffffffffffffffffffff16815260200190815260200160002060008373ffffffffffffffffffffffffffffffffffffffff1673ffffffffffffffffffffffffffffffffffffffff16815260200190815260200160002060009054906101000a900460ff16905092915050565b6000610ba5600b611ac6565b90506000610cba826040518060400160405280600a81526020017f46495253545f574f5244000000000000000000000000000000000000000000008152506007805480602002602001604051908101604052809291908181526020016000905b82821015610cb1578382906000526020600020018054610c24906133f7565b80601f0160208091040260200160405190810160405280929190818152602001828054610c50906133f7565b8015610c9d5780601f10610c7257610100808354040283529160200191610c9d565b820191906000526020600020905b815481529060010190602001808311610c8057829003601f168201915b505050505081526020019060010190610c05565b5050505061062d565b90506000610dcf836040518060400160405280600b81526020017f5345434f4e445f574f52440000000000000000000000000000000000000000008152506008805480602002602001604051908101604052809291908181526020016000905b82821015610dc6578382906000526020600020018054610d39906133f7565b80601f0160208091040260200160405190810160405280929190818152602001828054610d65906133f7565b8015610db25780601f10610d8757610100808354040283529160200191610db2565b820191906000526020600020905b815481529060010190602001808311610d9557829003601f168201915b505050505081526020019060010190610d1a565b5050505061062d565b90506000610ee4846040518060400160405280600a81526020017f54484952445f574f5244000000000000000000000000000000000000000000008152506009805480602002602001604051908101604052809291908181526020016000905b82821015610edb578382906000526020600020018054610e4e906133f7565b80601f0160208091040260200160405190810160405280929190818152602001828054610e7a906133f7565b8015610ec75780601f10610e9c57610100808354040283529160200191610ec7565b820191906000526020600020905b815481529060010190602001808311610eaa57829003601f168201915b505050505081526020019060010190610e2f565b5050505061062d565b90506000838383604051602001610efd93929190612ccc565b6040516020818303038152906040529050610f4c6040518060400160405280601581526020017f0a2d2d2d2d2d2d2d2d2d2d2d2d2d2d2d2d2d2d2d2d0000000000000000000000815250611ad4565b610f5884848484611b6d565b610f966040518060400160405280601581526020017f2d2d2d2d2d2d2d2d2d2d2d2d2d2d2d2d2d2d2d2d0a0000000000000000000000815250611ad4565b6000600a82604051602001610fac929190612cfd565b60405160208183030381529060405290506000610ff183610fcc84611c0f565b604051602001610fdd929190612d2c565b604051602081830303815290604052611c0f565b90506000816040516020016110069190612d71565b60405160208183030381529060405290506110556040518060400160405280601581526020017f0a2d2d2d2d2d2d2d2d2d2d2d2d2d2d2d2d2d2d2d2d0000000000000000000000815250611ad4565b61105e81611ad4565b61109c6040518060400160405280601581526020017f2d2d2d2d2d2d2d2d2d2d2d2d2d2d2d2d2d2d2d2d0a0000000000000000000000815250611ad4565b6110a63389611dcd565b6110b08882611deb565b6110ba600b611e5f565b6110dd604051806060016040528060258152602001613bbb602591398933611e75565b5050505050505050565b61117f82826040516024016110fd929190612e37565b6040516020818303038152906040527f319af333000000000000000000000000000000000000000000000000000000007bffffffffffffffffffffffffffffffffffffffffffffffffffffffff19166020820180517bffffffffffffffffffffffffffffffffffffffffffffffffffffffff8381831617835250505050611f14565b5050565b60007f01ffc9a7000000000000000000000000000000000000000000000000000000007bffffffffffffffffffffffffffffffffffffffffffffffffffffffff1916827bffffffffffffffffffffffffffffffffffffffffffffffffffffffff1916149050919050565b60008073ffffffffffffffffffffffffffffffffffffffff166002600084815260200190815260200160002060009054906101000a900473ffffffffffffffffffffffffffffffffffffffff1673ffffffffffffffffffffffffffffffffffffffff1614159050919050565b600033905090565b816004600083815260200190815260200160002060006101000a81548173ffffffffffffffffffffffffffffffffffffffff021916908373ffffffffffffffffffffffffffffffffffffffff160217905550808273ffffffffffffffffffffffffffffffffffffffff166112d48361073f565b73ffffffffffffffffffffffffffffffffffffffff167f8c5be1e5ebec7d5bd14f71427d1e84f3dd0314c0f7b2291e5b200ac8c7c3b92560405160405180910390a45050565b60606000821415611362576040518060400160405280600181526020017f300000000000000000000000000000000000000000000000000000000000000081525090506114c2565b600082905060005b6000821461139457808061137d9061345a565b915050600a8261138d9190613282565b915061136a565b60008167ffffffffffffffff8111156113d6577f4e487b7100000000000000000000000000000000000000000000000000000000600052604160045260246000fd5b6040519080825280601f01601f1916602001820160405280156114085781602001600182028036833780820191505090505b5090505b600085146114bb57600182611421919061330d565b9150600a8561143091906134a3565b603061143c919061322c565b60f81b818381518110611478577f4e487b7100000000000000000000000000000000000000000000000000000000600052603260045260246000fd5b60200101907effffffffffffffffffffffffffffffffffffffffffffffffffffffffffffff1916908160001a905350600a856114b49190613282565b945061140c565b8093505050505b919050565b6000816040516020016114da9190612c91565b6040516020818303038152906040528051906020012060001c9050919050565b6000611505826111ed565b611544576040517f08c379a000000000000000000000000000000000000000000000000000000000815260040161153b90612fa6565b60405180910390fd5b600061154f8361073f565b90508073ffffffffffffffffffffffffffffffffffffffff168473ffffffffffffffffffffffffffffffffffffffff16148061159157506115908185610b05565b5b806115cf57508373ffffffffffffffffffffffffffffffffffffffff166115b784610490565b73ffffffffffffffffffffffffffffffffffffffff16145b91505092915050565b8273ffffffffffffffffffffffffffffffffffffffff166115f88261073f565b73ffffffffffffffffffffffffffffffffffffffff161461164e576040517f08c379a000000000000000000000000000000000000000000000000000000000815260040161164590612f26565b60405180910390fd5b600073ffffffffffffffffffffffffffffffffffffffff168273ffffffffffffffffffffffffffffffffffffffff1614156116be576040517f08c379a00000000000000000000000000000000000000000000000000000000081526004016116b590612f66565b60405180910390fd5b6116c9838383611f3d565b6116d4600082611261565b6001600360008573ffffffffffffffffffffffffffffffffffffffff1673ffffffffffffffffffffffffffffffffffffffff1681526020019081526020016000206000828254611724919061330d565b925050819055506001600360008473ffffffffffffffffffffffffffffffffffffffff1673ffffffffffffffffffffffffffffffffffffffff168152602001908152602001600020600082825461177b919061322c565b92505081905550816002600083815260200190815260200160002060006101000a81548173ffffffffffffffffffffffffffffffffffffffff021916908373ffffffffffffffffffffffffffffffffffffffff160217905550808273ffffffffffffffffffffffffffffffffffffffff168473ffffffffffffffffffffffffffffffffffffffff167fddf252ad1be2c89b69c2b068fc378daa952ba7f163c4a11628f55a4df523b3ef60405160405180910390a461183a838383611f42565b505050565b8173ffffffffffffffffffffffffffffffffffffffff168373ffffffffffffffffffffffffffffffffffffffff1614156118ae576040517f08c379a00000000000000000000000000000000000000000000000000000000081526004016118a590612f86565b60405180910390fd5b80600560008573ffffffffffffffffffffffffffffffffffffffff1673ffffffffffffffffffffffffffffffffffffffff16815260200190815260200160002060008473ffffffffffffffffffffffffffffffffffffffff1673ffffffffffffffffffffffffffffffffffffffff16815260200190815260200160002060006101000a81548160ff0219169083151502179055508173ffffffffffffffffffffffffffffffffffffffff168373ffffffffffffffffffffffffffffffffffffffff167f17307eab39ab6107e8899845ad3d59bd9653f200f220920489ca2b5937696c318360405161199f9190612dfa565b60405180910390a3505050565b6119b78484846115d8565b6119c384848484611f47565b611a02576040517f08c379a00000000000000000000000000000000000000000000000000000000081526004016119f990612f06565b60405180910390fd5b50505050565b606060405180602001604052806000815250905090565b6060611a2a826111ed565b611a69576040517f08c379a0000000000000000000000000000000000000000000000000000000008152600401611a60906130a6565b60405180910390fd5b6000611a73611a08565b90506000815111611a935760405180602001604052806000815250611abe565b80611a9d8461131a565b604051602001611aae929190612ca8565b6040516020818303038152906040525b915050919050565b600081600001549050919050565b611b6a81604051602401611ae89190612e15565b6040516020818303038152906040527f41304fac000000000000000000000000000000000000000000000000000000007bffffffffffffffffffffffffffffffffffffffffffffffffffffffff19166020820180517bffffffffffffffffffffffffffffffffffffffffffffffffffffffff8381831617835250505050611f14565b50565b611c0984848484604051602401611b879493929190612e67565b6040516020818303038152906040527fde68f20a000000000000000000000000000000000000000000000000000000007bffffffffffffffffffffffffffffffffffffffffffffffffffffffff19166020820180517bffffffffffffffffffffffffffffffffffffffffffffffffffffffff8381831617835250505050611f14565b50505050565b60606000825190506000811415611c385760405180602001604052806000815250915050611dc8565b60006003600283611c49919061322c565b611c539190613282565b6004611c5f91906132b3565b90506000602082611c70919061322c565b67ffffffffffffffff811115611caf577f4e487b7100000000000000000000000000000000000000000000000000000000600052604160045260246000fd5b6040519080825280601f01601f191660200182016040528015611ce15781602001600182028036833780820191505090505b5090506000604051806060016040528060408152602001613be0604091399050600181016020830160005b86811015611d855760038101905062ffffff818a015116603f8160121c168401518060081b905060ff603f83600c1c1686015116810190508060081b905060ff603f8360061c1686015116810190508060081b905060ff603f831686015116810190508060e01b90508084526004840193505050611d0c565b506003860660018114611d9f5760028114611daf57611dba565b613d3d60f01b6002830352611dba565b603d60f81b60018303525b508484525050819450505050505b919050565b611de78282604051806020016040528060008152506120de565b5050565b611df4826111ed565b611e33576040517f08c379a0000000000000000000000000000000000000000000000000000000008152600401611e2a90613026565b60405180910390fd5b80600660008481526020019081526020016000209080519060200190611e5a929190612336565b505050565b6001816000016000828254019250508190555050565b611f0f838383604051602401611e8d93929190612ec8565b6040516020818303038152906040527fe3849f79000000000000000000000000000000000000000000000000000000007bffffffffffffffffffffffffffffffffffffffffffffffffffffffff19166020820180517bffffffffffffffffffffffffffffffffffffffffffffffffffffffff8381831617835250505050611f14565b505050565b60008151905060006a636f6e736f6c652e6c6f679050602083016000808483855afa5050505050565b505050565b505050565b6000611f688473ffffffffffffffffffffffffffffffffffffffff16612139565b156120d1578373ffffffffffffffffffffffffffffffffffffffff1663150b7a02611f91611259565b8786866040518563ffffffff1660e01b8152600401611fb39493929190612dae565b602060405180830381600087803b158015611fcd57600080fd5b505af1925050508015611ffe57506040513d601f19601f82011682018060405250810190611ffb9190612792565b60015b612081573d806000811461202e576040519150601f19603f3d011682016040523d82523d6000602084013e612033565b606091505b50600081511415612079576040517f08c379a000000000000000000000000000000000000000000000000000000000815260040161207090612f06565b60405180910390fd5b805181602001fd5b63150b7a0260e01b7bffffffffffffffffffffffffffffffffffffffffffffffffffffffff1916817bffffffffffffffffffffffffffffffffffffffffffffffffffffffff1916149150506120d6565b600190505b949350505050565b6120e8838361215c565b6120f56000848484611f47565b612134576040517f08c379a000000000000000000000000000000000000000000000000000000000815260040161212b90612f06565b60405180910390fd5b505050565b6000808273ffffffffffffffffffffffffffffffffffffffff163b119050919050565b600073ffffffffffffffffffffffffffffffffffffffff168273ffffffffffffffffffffffffffffffffffffffff1614156121cc576040517f08c379a00000000000000000000000000000000000000000000000000000000081526004016121c390613046565b60405180910390fd5b6121d5816111ed565b15612215576040517f08c379a000000000000000000000000000000000000000000000000000000000815260040161220c90612f46565b60405180910390fd5b61222160008383611f3d565b6001600360008473ffffffffffffffffffffffffffffffffffffffff1673ffffffffffffffffffffffffffffffffffffffff1681526020019081526020016000206000828254612271919061322c565b92505081905550816002600083815260200190815260200160002060006101000a81548173ffffffffffffffffffffffffffffffffffffffff021916908373ffffffffffffffffffffffffffffffffffffffff160217905550808273ffffffffffffffffffffffffffffffffffffffff16600073ffffffffffffffffffffffffffffffffffffffff167fddf252ad1be2c89b69c2b068fc378daa952ba7f163c4a11628f55a4df523b3ef60405160405180910390a461233260008383611f42565b5050565b828054612342906133f7565b90600052602060002090601f01602090048101928261236457600085556123ab565b82601f1061237d57805160ff19168380011785556123ab565b828001600101855582156123ab579182015b828111156123aa57825182559160200191906001019061238f565b5b5090506123b891906123bc565b5090565b5b808211156123d55760008160009055506001016123bd565b5090565b60006123ec6123e784613146565b613121565b9050808382526020820190508285602086028201111561240b57600080fd5b60005b8581101561245557813567ffffffffffffffff81111561242d57600080fd5b80860161243a8982612583565b8552602085019450602084019350505060018101905061240e565b5050509392505050565b600061247261246d84613172565b613121565b90508281526020810184848401111561248a57600080fd5b6124958482856133b5565b509392505050565b60006124b06124ab846131a3565b613121565b9050828152602081018484840111156124c857600080fd5b6124d38482856133b5565b509392505050565b6000813590506124ea81613b5e565b92915050565b600082601f83011261250157600080fd5b81356125118482602086016123d9565b91505092915050565b60008135905061252981613b75565b92915050565b60008135905061253e81613b8c565b92915050565b60008151905061255381613b8c565b92915050565b600082601f83011261256a57600080fd5b813561257a84826020860161245f565b91505092915050565b600082601f83011261259457600080fd5b81356125a484826020860161249d565b91505092915050565b6000813590506125bc81613ba3565b92915050565b6000602082840312156125d457600080fd5b60006125e2848285016124db565b91505092915050565b600080604083850312156125fe57600080fd5b600061260c858286016124db565b925050602061261d858286016124db565b9150509250929050565b60008060006060848603121561263c57600080fd5b600061264a868287016124db565b935050602061265b868287016124db565b925050604061266c868287016125ad565b9150509250925092565b6000806000806080858703121561268c57600080fd5b600061269a878288016124db565b94505060206126ab878288016124db565b93505060406126bc878288016125ad565b925050606085013567ffffffffffffffff8111156126d957600080fd5b6126e587828801612559565b91505092959194509250565b6000806040838503121561270457600080fd5b6000612712858286016124db565b92505060206127238582860161251a565b9150509250929050565b6000806040838503121561274057600080fd5b600061274e858286016124db565b925050602061275f858286016125ad565b9150509250929050565b60006020828403121561277b57600080fd5b60006127898482850161252f565b91505092915050565b6000602082840312156127a457600080fd5b60006127b284828501612544565b91505092915050565b6000602082840312156127cd57600080fd5b60006127db848285016125ad565b91505092915050565b6000806000606084860312156127f957600080fd5b6000612807868287016125ad565b935050602084013567ffffffffffffffff81111561282457600080fd5b61283086828701612583565b925050604084013567ffffffffffffffff81111561284d57600080fd5b612859868287016124f0565b9150509250925092565b61286c81613341565b82525050565b61287b81613353565b82525050565b600061288c826131e9565b61289681856131ff565b93506128a68185602086016133c4565b6128af81613590565b840191505092915050565b60006128c5826131f4565b6128cf8185613210565b93506128df8185602086016133c4565b6128e881613590565b840191505092915050565b60006128fe826131f4565b6129088185613221565b93506129188185602086016133c4565b80840191505092915050565b60008154612931816133f7565b61293b8186613221565b9450600182166000811461295657600181146129675761299a565b60ff1983168652818601935061299a565b612970856131d4565b60005b8381101561299257815481890152600182019150602081019050612973565b838801955050505b50505092915050565b60006129b0603283613210565b91506129bb826135a1565b604082019050919050565b60006129d3602583613210565b91506129de826135f0565b604082019050919050565b60006129f6601c83613210565b9150612a018261363f565b602082019050919050565b6000612a19602483613210565b9150612a2482613668565b604082019050919050565b6000612a3c601983613210565b9150612a47826136b7565b602082019050919050565b6000612a5f606383613221565b9150612a6a826136e0565b606382019050919050565b6000612a82602c83613210565b9150612a8d8261377b565b604082019050919050565b6000612aa5600d83613221565b9150612ab0826137ca565b600d82019050919050565b6000612ac8603883613210565b9150612ad3826137f3565b604082019050919050565b6000612aeb602a83613210565b9150612af682613842565b604082019050919050565b6000612b0e602983613210565b9150612b1982613891565b604082019050919050565b6000612b31602e83613210565b9150612b3c826138e0565b604082019050919050565b6000612b54600283613221565b9150612b5f8261392f565b600282019050919050565b6000612b77602083613210565b9150612b8282613958565b602082019050919050565b6000612b9a603183613210565b9150612ba582613981565b604082019050919050565b6000612bbd602c83613210565b9150612bc8826139d0565b604082019050919050565b6000612be0602f83613210565b9150612beb82613a1f565b604082019050919050565b6000612c03600a83613221565b9150612c0e82613a6e565b600a82019050919050565b6000612c26602183613210565b9150612c3182613a97565b604082019050919050565b6000612c49601d83613221565b9150612c5482613ae6565b601d82019050919050565b6000612c6c603183613210565b9150612c7782613b0f565b604082019050919050565b612c8b816133ab565b82525050565b6000612c9d82846128f3565b915081905092915050565b6000612cb482856128f3565b9150612cc082846128f3565b91508190509392505050565b6000612cd882866128f3565b9150612ce482856128f3565b9150612cf082846128f3565b9150819050949350505050565b6000612d098285612924565b9150612d1582846128f3565b9150612d2082612a98565b91508190509392505050565b6000612d3782612bf6565b9150612d4382856128f3565b9150612d4e82612a52565b9150612d5a82846128f3565b9150612d6582612b47565b91508190509392505050565b6000612d7c82612c3c565b9150612d8882846128f3565b915081905092915050565b6000602082019050612da86000830184612863565b92915050565b6000608082019050612dc36000830187612863565b612dd06020830186612863565b612ddd6040830185612c82565b8181036060830152612def8184612881565b905095945050505050565b6000602082019050612e0f6000830184612872565b92915050565b60006020820190508181036000830152612e2f81846128ba565b905092915050565b60006040820190508181036000830152612e5181856128ba565b9050612e606020830184612863565b9392505050565b60006080820190508181036000830152612e8181876128ba565b90508181036020830152612e9581866128ba565b90508181036040830152612ea981856128ba565b90508181036060830152612ebd81846128ba565b905095945050505050565b60006060820190508181036000830152612ee281866128ba565b9050612ef16020830185612c82565b612efe6040830184612863565b949350505050565b60006020820190508181036000830152612f1f816129a3565b9050919050565b60006020820190508181036000830152612f3f816129c6565b9050919050565b60006020820190508181036000830152612f5f816129e9565b9050919050565b60006020820190508181036000830152612f7f81612a0c565b9050919050565b60006020820190508181036000830152612f9f81612a2f565b9050919050565b60006020820190508181036000830152612fbf81612a75565b9050919050565b60006020820190508181036000830152612fdf81612abb565b9050919050565b60006020820190508181036000830152612fff81612ade565b9050919050565b6000602082019050818103600083015261301f81612b01565b9050919050565b6000602082019050818103600083015261303f81612b24565b9050919050565b6000602082019050818103600083015261305f81612b6a565b9050919050565b6000602082019050818103600083015261307f81612b8d565b9050919050565b6000602082019050818103600083015261309f81612bb0565b9050919050565b600060208201905081810360008301526130bf81612bd3565b9050919050565b600060208201905081810360008301526130df81612c19565b9050919050565b600060208201905081810360008301526130ff81612c5f565b9050919050565b600060208201905061311b6000830184612c82565b92915050565b600061312b61313c565b90506131378282613429565b919050565b6000604051905090565b600067ffffffffffffffff82111561316157613160613561565b5b602082029050602081019050919050565b600067ffffffffffffffff82111561318d5761318c613561565b5b61319682613590565b9050602081019050919050565b600067ffffffffffffffff8211156131be576131bd613561565b5b6131c782613590565b9050602081019050919050565b60008190508160005260206000209050919050565b600081519050919050565b600081519050919050565b600082825260208201905092915050565b600082825260208201905092915050565b600081905092915050565b6000613237826133ab565b9150613242836133ab565b9250827fffffffffffffffffffffffffffffffffffffffffffffffffffffffffffffffff03821115613277576132766134d4565b5b828201905092915050565b600061328d826133ab565b9150613298836133ab565b9250826132a8576132a7613503565b5b828204905092915050565b60006132be826133ab565b91506132c9836133ab565b9250817fffffffffffffffffffffffffffffffffffffffffffffffffffffffffffffffff0483118215151615613302576133016134d4565b5b828202905092915050565b6000613318826133ab565b9150613323836133ab565b925082821015613336576133356134d4565b5b828203905092915050565b600061334c8261338b565b9050919050565b60008115159050919050565b60007fffffffff0000000000000000000000000000000000000000000000000000000082169050919050565b600073ffffffffffffffffffffffffffffffffffffffff82169050919050565b6000819050919050565b82818337600083830152505050565b60005b838110156133e25780820151818401526020810190506133c7565b838111156133f1576000848401525b50505050565b6000600282049050600182168061340f57607f821691505b6020821081141561342357613422613532565b5b50919050565b61343282613590565b810181811067ffffffffffffffff8211171561345157613450613561565b5b80604052505050565b6000613465826133ab565b91507fffffffffffffffffffffffffffffffffffffffffffffffffffffffffffffffff821415613498576134976134d4565b5b600182019050919050565b60006134ae826133ab565b91506134b9836133ab565b9250826134c9576134c8613503565b5b828206905092915050565b7f4e487b7100000000000000000000000000000000000000000000000000000000600052601160045260246000fd5b7f4e487b7100000000000000000000000000000000000000000000000000000000600052601260045260246000fd5b7f4e487b7100000000000000000000000000000000000000000000000000000000600052602260045260246000fd5b7f4e487b7100000000000000000000000000000000000000000000000000000000600052604160045260246000fd5b6000601f19601f8301169050919050565b7f4552433732313a207472616e7366657220746f206e6f6e20455243373231526560008201527f63656976657220696d706c656d656e7465720000000000000000000000000000602082015250565b7f4552433732313a207472616e736665722066726f6d20696e636f72726563742060008201527f6f776e6572000000000000000000000000000000000000000000000000000000602082015250565b7f4552433732313a20746f6b656e20616c7265616479206d696e74656400000000600082015250565b7f4552433732313a207472616e7366657220746f20746865207a65726f2061646460008201527f7265737300000000000000000000000000000000000000000000000000000000602082015250565b7f4552433732313a20617070726f766520746f2063616c6c657200000000000000600082015250565b7f222c20226465736372697074696f6e223a20224120686967686c79206163636c60008201527f61696d656420636f6c6c656374696f6e206f6620737175617265732e222c202260208201527f696d616765223a2022646174613a696d6167652f7376672b786d6c3b6261736560408201527f36342c0000000000000000000000000000000000000000000000000000000000606082015250565b7f4552433732313a206f70657261746f7220717565727920666f72206e6f6e657860008201527f697374656e7420746f6b656e0000000000000000000000000000000000000000602082015250565b7f3c2f746578743e3c2f7376673e00000000000000000000000000000000000000600082015250565b7f4552433732313a20617070726f76652063616c6c6572206973206e6f74206f7760008201527f6e6572206e6f7220617070726f76656420666f7220616c6c0000000000000000602082015250565b7f4552433732313a2062616c616e636520717565727920666f7220746865207a6560008201527f726f206164647265737300000000000000000000000000000000000000000000602082015250565b7f4552433732313a206f776e657220717565727920666f72206e6f6e657869737460008201527f656e7420746f6b656e0000000000000000000000000000000000000000000000602082015250565b7f45524337323155524953746f726167653a2055524920736574206f66206e6f6e60008201527f6578697374656e7420746f6b656e000000000000000000000000000000000000602082015250565b7f227d000000000000000000000000000000000000000000000000000000000000600082015250565b7f4552433732313a206d696e7420746f20746865207a65726f2061646472657373600082015250565b7f45524337323155524953746f726167653a2055524920717565727920666f722060008201527f6e6f6e6578697374656e7420746f6b656e000000000000000000000000000000602082015250565b7f4552433732313a20617070726f76656420717565727920666f72206e6f6e657860008201527f697374656e7420746f6b656e0000000000000000000000000000000000000000602082015250565b7f4552433732314d657461646174613a2055524920717565727920666f72206e6f60008201527f6e6578697374656e7420746f6b656e0000000000000000000000000000000000602082015250565b7f7b226e616d65223a202200000000000000000000000000000000000000000000600082015250565b7f4552433732313a20617070726f76616c20746f2063757272656e74206f776e6560008201527f7200000000000000000000000000000000000000000000000000000000000000602082015250565b7f646174613a6170706c69636174696f6e2f6a736f6e3b6261736536342c000000600082015250565b7f4552433732313a207472616e736665722063616c6c6572206973206e6f74206f60008201527f776e6572206e6f7220617070726f766564000000000000000000000000000000602082015250565b613b6781613341565b8114613b7257600080fd5b50565b613b7e81613353565b8114613b8957600080fd5b50565b613b958161335f565b8114613ba057600080fd5b50565b613bac816133ab565b8114613bb757600080fd5b5056fe416e204e465420772f20494420257320686173206265656e206d696e74656420746f2025734142434445464748494a4b4c4d4e4f505152535455565758595a6162636465666768696a6b6c6d6e6f707172737475767778797a303132333435363738392b2fa2646970667358221220ec6df096766087b93d8230ebc0cd68741f939c1125fdd4a3d09bcab0d8cb06cb64736f6c634300080400333c73766720786d6c6e733d27687474703a2f2f7777772e77332e6f72672f323030302f73766727207072657365727665417370656374526174696f3d27784d696e594d696e206d656574272076696577426f783d273020302033353020333530273e3c7374796c653e2e62617365207b2066696c6c3a2077686974653b20666f6e742d66616d696c793a2073657269663b20666f6e742d73697a653a20323470783b207d3c2f7374796c653e3c726563742077696474683d273130302527206865696768743d2731303025272066696c6c3d27626c61636b27202f3e3c7465787420783d273530252720793d273530252720636c6173733d27626173652720646f6d696e616e742d626173656c696e653d276d6964646c652720746578742d616e63686f723d276d6964646c65273e",
  "linkReferences": {},
  "deployedLinkReferences": {}
}