{
  "_format": "hh-sol-artifact-1",
  "contractName": "DeNFT",
  "sourceName": "contracts/DeNFT.sol",
  "abi": [
    {
      "inputs": [],
      "stateMutability": "nonpayable",
      "type": "constructor"
    },
    {
      "anonymous": false,
      "inputs": [
        {
          "indexed": true,
          "internalType": "address",
          "name": "owner",
          "type": "address"
        },
        {
          "indexed": true,
          "internalType": "address",
          "name": "approved",
          "type": "address"
        },
        {
          "indexed": true,
          "internalType": "uint256",
          "name": "tokenId",
          "type": "uint256"
        }
      ],
      "name": "Approval",
      "type": "event"
    },
    {
      "anonymous": false,
      "inputs": [
        {
          "indexed": true,
          "internalType": "address",
          "name": "owner",
          "type": "address"
        },
        {
          "indexed": true,
          "internalType": "address",
          "name": "operator",
          "type": "address"
        },
        {
          "indexed": false,
          "internalType": "bool",
          "name": "approved",
          "type": "bool"
        }
      ],
      "name": "ApprovalForAll",
      "type": "event"
    },
    {
      "anonymous": false,
      "inputs": [
        {
          "indexed": true,
          "internalType": "address",
          "name": "from",
          "type": "address"
        },
        {
          "indexed": true,
          "internalType": "address",
          "name": "to",
          "type": "address"
        },
        {
          "indexed": true,
          "internalType": "uint256",
          "name": "tokenId",
          "type": "uint256"
        }
      ],
      "name": "Transfer",
      "type": "event"
    },
    {
      "anonymous": false,
      "inputs": [
        {
          "indexed": false,
          "internalType": "address",
          "name": "sender",
          "type": "address"
        },
        {
          "indexed": false,
          "internalType": "uint256",
          "name": "tokenId",
          "type": "uint256"
        }
      ],
      "name": "nftMinted",
      "type": "event"
    },
    {
      "inputs": [
        {
          "internalType": "address",
          "name": "to",
          "type": "address"
        },
        {
          "internalType": "uint256",
          "name": "tokenId",
          "type": "uint256"
        }
      ],
      "name": "approve",
      "outputs": [],
      "stateMutability": "nonpayable",
      "type": "function"
    },
    {
      "inputs": [
        {
          "internalType": "address",
          "name": "owner",
          "type": "address"
        }
      ],
      "name": "balanceOf",
      "outputs": [
        {
          "internalType": "uint256",
          "name": "",
          "type": "uint256"
        }
      ],
      "stateMutability": "view",
      "type": "function"
    },
    {
      "inputs": [
        {
          "internalType": "uint256",
          "name": "tokenId",
          "type": "uint256"
        }
      ],
      "name": "getApproved",
      "outputs": [
        {
          "internalType": "address",
          "name": "",
          "type": "address"
        }
      ],
      "stateMutability": "view",
      "type": "function"
    },
    {
      "inputs": [
        {
          "internalType": "address",
          "name": "owner",
          "type": "address"
        },
        {
          "internalType": "address",
          "name": "operator",
          "type": "address"
        }
      ],
      "name": "isApprovedForAll",
      "outputs": [
        {
          "internalType": "bool",
          "name": "",
          "type": "bool"
        }
      ],
      "stateMutability": "view",
      "type": "function"
    },
    {
      "inputs": [],
      "name": "mintAnNFT",
      "outputs": [],
      "stateMutability": "nonpayable",
      "type": "function"
    },
    {
      "inputs": [],
      "name": "name",
      "outputs": [
        {
          "internalType": "string",
          "name": "",
          "type": "string"
        }
      ],
      "stateMutability": "view",
      "type": "function"
    },
    {
      "inputs": [
        {
          "internalType": "uint256",
          "name": "tokenId",
          "type": "uint256"
        }
      ],
      "name": "ownerOf",
      "outputs": [
        {
          "internalType": "address",
          "name": "",
          "type": "address"
        }
      ],
      "stateMutability": "view",
      "type": "function"
    },
    {
      "inputs": [
        {
          "internalType": "uint256",
          "name": "tokenId",
          "type": "uint256"
        }
      ],
      "name": "pickRandomColor",
      "outputs": [
        {
          "internalType": "string",
          "name": "",
          "type": "string"
        }
      ],
      "stateMutability": "view",
      "type": "function"
    },
    {
      "inputs": [
        {
          "internalType": "uint256",
          "name": "tokenId",
          "type": "uint256"
        },
        {
          "internalType": "string",
          "name": "initalword",
          "type": "string"
        },
        {
          "internalType": "string[]",
          "name": "wordsArr",
          "type": "string[]"
        }
      ],
      "name": "pickRandomWordFromArr",
      "outputs": [
        {
          "internalType": "string",
          "name": "",
          "type": "string"
        }
      ],
      "stateMutability": "pure",
      "type": "function"
    },
    {
      "inputs": [
        {
          "internalType": "address",
          "name": "from",
          "type": "address"
        },
        {
          "internalType": "address",
          "name": "to",
          "type": "address"
        },
        {
          "internalType": "uint256",
          "name": "tokenId",
          "type": "uint256"
        }
      ],
      "name": "safeTransferFrom",
      "outputs": [],
      "stateMutability": "nonpayable",
      "type": "function"
    },
    {
      "inputs": [
        {
          "internalType": "address",
          "name": "from",
          "type": "address"
        },
        {
          "internalType": "address",
          "name": "to",
          "type": "address"
        },
        {
          "internalType": "uint256",
          "name": "tokenId",
          "type": "uint256"
        },
        {
          "internalType": "bytes",
          "name": "_data",
          "type": "bytes"
        }
      ],
      "name": "safeTransferFrom",
      "outputs": [],
      "stateMutability": "nonpayable",
      "type": "function"
    },
    {
      "inputs": [
        {
          "internalType": "address",
          "name": "operator",
          "type": "address"
        },
        {
          "internalType": "bool",
          "name": "approved",
          "type": "bool"
        }
      ],
      "name": "setApprovalForAll",
      "outputs": [],
      "stateMutability": "nonpayable",
      "type": "function"
    },
    {
      "inputs": [
        {
          "internalType": "bytes4",
          "name": "interfaceId",
          "type": "bytes4"
        }
      ],
      "name": "supportsInterface",
      "outputs": [
        {
          "internalType": "bool",
          "name": "",
          "type": "bool"
        }
      ],
      "stateMutability": "view",
      "type": "function"
    },
    {
      "inputs": [],
      "name": "symbol",
      "outputs": [
        {
          "internalType": "string",
          "name": "",
          "type": "string"
        }
      ],
      "stateMutability": "view",
      "type": "function"
    },
    {
      "inputs": [
        {
          "internalType": "uint256",
          "name": "tokenId",
          "type": "uint256"
        }
      ],
      "name": "tokenURI",
      "outputs": [
        {
          "internalType": "string",
          "name": "",
          "type": "string"
        }
      ],
      "stateMutability": "view",
      "type": "function"
    },
    {
      "inputs": [
        {
          "internalType": "address",
          "name": "from",
          "type": "address"
        },
        {
          "internalType": "address",
          "name": "to",
          "type": "address"
        },
        {
          "internalType": "uint256",
          "name": "tokenId",
          "type": "uint256"
        }
      ],
      "name": "transferFrom",
      "outputs": [],
      "stateMutability": "nonpayable",
      "type": "function"
    }
  ],
  "bytecode": "0x60806040526040518061018001604052806040518060400160405280600381526020017f526564000000000000000000000000000000000000000000000000000000000081525081526020016040518060400160405280600881526020017f426c61636b52656400000000000000000000000000000000000000000000000081525081526020016040518060400160405280600681526020017f59656c6c6f77000000000000000000000000000000000000000000000000000081525081526020016040518060400160405280600a81526020017f5665727959656c6c6f770000000000000000000000000000000000000000000081525081526020016040518060400160405280600481526020017f426c75650000000000000000000000000000000000000000000000000000000081525081526020016040518060400160405280600881526020017f4461726b426c756500000000000000000000000000000000000000000000000081525081526020016040518060400160405280600581526020017f42726f776e00000000000000000000000000000000000000000000000000000081525081526020016040518060400160405280600a81526020017f426c61636b42726f776e0000000000000000000000000000000000000000000081525081526020016040518060400160405280600681526020017f507572706c65000000000000000000000000000000000000000000000000000081525081526020016040518060400160405280600981526020017f526564507572706c65000000000000000000000000000000000000000000000081525081526020016040518060400160405280600681526020017f53696c766572000000000000000000000000000000000000000000000000000081525081526020016040518060400160405280600d81526020017f426c61636b566572794d75636800000000000000000000000000000000000000815250815250600790600c620002e492919062000ccf565b506040518060c001604052806040518060400160405280600681526020017f496365746561000000000000000000000000000000000000000000000000000081525081526020016040518060400160405280600a81526020017f566572794963657465610000000000000000000000000000000000000000000081525081526020016040518060400160405280600581526020017f417972616e00000000000000000000000000000000000000000000000000000081525081526020016040518060400160405280600981526020017f56657279417972616e000000000000000000000000000000000000000000000081525081526020016040518060400160405280600781526020017f4e6573636166650000000000000000000000000000000000000000000000000081525081526020016040518060400160405280600e81526020017f5475726b69736820436f6666656500000000000000000000000000000000000081525081525060089060066200046292919062000d36565b506040518061010001604052806040518060400160405280600781526020017f546f6d6174746f0000000000000000000000000000000000000000000000000081525081526020016040518060400160405280600481526020017f4f6372610000000000000000000000000000000000000000000000000000000081525081526020016040518060400160405280600681526020017f506f7461746f000000000000000000000000000000000000000000000000000081525081526020016040518060400160405280600781526020017f526564646973680000000000000000000000000000000000000000000000000081525081526020016040518060400160405280600781526020017f436162626167650000000000000000000000000000000000000000000000000081525081526020016040518060400160405280600b81526020017f477265656e4368696c6c6900000000000000000000000000000000000000000081525081526020016040518060400160405280600a81526020017f566572794368696c6c690000000000000000000000000000000000000000000081525081526020016040518060400160405280600981526020017f5265644368696c6c69000000000000000000000000000000000000000000000081525081525060099060086200065792919062000d9d565b5060405180610100016040528060d38152602001620050d860d39139600a90805190602001906200068a92919062000e04565b50604051806080016040528060568152602001620051ab60569139600b9080519060200190620006bc92919062000e04565b506040518061024001604052806040518060400160405280600781526020017f236634343333360000000000000000000000000000000000000000000000000081525081526020016040518060400160405280600781526020017f236539316536330000000000000000000000000000000000000000000000000081525081526020016040518060400160405280600781526020017f233963323762300000000000000000000000000000000000000000000000000081525081526020016040518060400160405280600781526020017f233366353162350000000000000000000000000000000000000000000000000081525081526020016040518060400160405280600781526020017f233231393666330000000000000000000000000000000000000000000000000081525081526020016040518060400160405280600781526020017f233033613966340000000000000000000000000000000000000000000000000081525081526020016040518060400160405280600781526020017f233030626364340000000000000000000000000000000000000000000000000081525081526020016040518060400160405280600781526020017f233030393638380000000000000000000000000000000000000000000000000081525081526020016040518060400160405280600781526020017f233463616635300000000000000000000000000000000000000000000000000081525081526020016040518060400160405280600781526020017f233862633334610000000000000000000000000000000000000000000000000081525081526020016040518060400160405280600781526020017f236364646333390000000000000000000000000000000000000000000000000081525081526020016040518060400160405280600781526020017f236666656233620000000000000000000000000000000000000000000000000081525081526020016040518060400160405280600781526020017f236666633130370000000000000000000000000000000000000000000000000081525081526020016040518060400160405280600781526020017f236666393830300000000000000000000000000000000000000000000000000081525081526020016040518060400160405280600781526020017f236666353732320000000000000000000000000000000000000000000000000081525081526020016040518060400160405280600781526020017f233739353534380000000000000000000000000000000000000000000000000081525081526020016040518060400160405280600781526020017f233965396539650000000000000000000000000000000000000000000000000081525081526020016040518060400160405280600781526020017f2336303764386200000000000000000000000000000000000000000000000000815250815250600c90601262000aff92919062000e95565b5034801562000b0d57600080fd5b506040518060400160405280600581526020017f44654e66740000000000000000000000000000000000000000000000000000008152506040518060400160405280600581526020017f44454e4654000000000000000000000000000000000000000000000000000000815250816000908051906020019062000b9292919062000e04565b50806001908051906020019062000bab92919062000e04565b50505062000bfa6040518060400160405280601c81526020017f696e6974696e67204e465420636f6e74726163742c204f776e65723d000000008152503362000c0060201b620012cb1760201c565b6200110b565b62000ca2828260405160240162000c1992919062000fdb565b6040516020818303038152906040527f319af333000000000000000000000000000000000000000000000000000000007bffffffffffffffffffffffffffffffffffffffffffffffffffffffff19166020820180517bffffffffffffffffffffffffffffffffffffffffffffffffffffffff838183161783525050505062000ca660201b60201c565b5050565b60008151905060006a636f6e736f6c652e6c6f679050602083016000808483855afa5050505050565b82805482825590600052602060002090810192821562000d23579160200282015b8281111562000d2257825182908051906020019062000d1192919062000e04565b509160200191906001019062000cf0565b5b50905062000d32919062000efc565b5090565b82805482825590600052602060002090810192821562000d8a579160200282015b8281111562000d8957825182908051906020019062000d7892919062000e04565b509160200191906001019062000d57565b5b50905062000d99919062000efc565b5090565b82805482825590600052602060002090810192821562000df1579160200282015b8281111562000df057825182908051906020019062000ddf92919062000e04565b509160200191906001019062000dbe565b5b50905062000e00919062000efc565b5090565b82805462000e129062001095565b90600052602060002090601f01602090048101928262000e36576000855562000e82565b82601f1062000e5157805160ff191683800117855562000e82565b8280016001018555821562000e82579182015b8281111562000e8157825182559160200191906001019062000e64565b5b50905062000e91919062000f24565b5090565b82805482825590600052602060002090810192821562000ee9579160200282015b8281111562000ee857825182908051906020019062000ed792919062000e04565b509160200191906001019062000eb6565b5b50905062000ef8919062000efc565b5090565b5b8082111562000f20576000818162000f16919062000f43565b5060010162000efd565b5090565b5b8082111562000f3f57600081600090555060010162000f25565b5090565b50805462000f519062001095565b6000825580601f1062000f65575062000f86565b601f01602090049060005260206000209081019062000f85919062000f24565b5b50565b62000f94816200102b565b82525050565b600062000fa7826200100f565b62000fb381856200101a565b935062000fc58185602086016200105f565b62000fd081620010fa565b840191505092915050565b6000604082019050818103600083015262000ff7818562000f9a565b905062001008602083018462000f89565b9392505050565b600081519050919050565b600082825260208201905092915050565b600062001038826200103f565b9050919050565b600073ffffffffffffffffffffffffffffffffffffffff82169050919050565b60005b838110156200107f57808201518184015260208101905062001062565b838111156200108f576000848401525b50505050565b60006002820490506001821680620010ae57607f821691505b60208210811415620010c557620010c4620010cb565b5b50919050565b7f4e487b7100000000000000000000000000000000000000000000000000000000600052602260045260246000fd5b6000601f19601f8301169050919050565b613fbd806200111b6000396000f3fe608060405234801561001057600080fd5b50600436106101005760003560e01c80636352211e11610097578063b88d4fde11610066578063b88d4fde146102d1578063c87b56dd146102ed578063e985e9c51461031d578063f3d704c81461034d57610100565b80636352211e1461023757806370a082311461026757806395d89b4114610297578063a22cb465146102b557610100565b806321bef32d116100d357806321bef32d1461019f57806323b872dd146101cf57806342842e0e146101eb578063514dc8c61461020757610100565b806301ffc9a71461010557806306fdde0314610135578063081812fc14610153578063095ea7b314610183575b600080fd5b61011f600480360381019061011a91906129e9565b610357565b60405161012c9190613102565b60405180910390f35b61013d610439565b60405161014a919061311d565b60405180910390f35b61016d60048036038101906101689190612a3b565b6104cb565b60405161017a9190613072565b60405180910390f35b61019d600480360381019061019891906129ad565b610550565b005b6101b960048036038101906101b49190612a64565b610668565b6040516101c6919061311d565b60405180910390f35b6101e960048036038101906101e491906128a7565b6106fa565b005b610205600480360381019061020091906128a7565b61075a565b005b610221600480360381019061021c9190612a3b565b61077a565b60405161022e919061311d565b60405180910390f35b610251600480360381019061024c9190612a3b565b610898565b60405161025e9190613072565b60405180910390f35b610281600480360381019061027c9190612842565b61094a565b60405161028e9190613445565b60405180910390f35b61029f610a02565b6040516102ac919061311d565b60405180910390f35b6102cf60048036038101906102ca9190612971565b610a94565b005b6102eb60048036038101906102e691906128f6565b610aaa565b005b61030760048036038101906103029190612a3b565b610b0c565b604051610314919061311d565b60405180910390f35b6103376004803603810190610332919061286b565b610c5e565b6040516103449190613102565b60405180910390f35b610355610cf2565b005b60007f80ac58cd000000000000000000000000000000000000000000000000000000007bffffffffffffffffffffffffffffffffffffffffffffffffffffffff1916827bffffffffffffffffffffffffffffffffffffffffffffffffffffffff1916148061042257507f5b5e139f000000000000000000000000000000000000000000000000000000007bffffffffffffffffffffffffffffffffffffffffffffffffffffffff1916827bffffffffffffffffffffffffffffffffffffffffffffffffffffffff1916145b80610432575061043182611367565b5b9050919050565b60606000805461044890613736565b80601f016020809104026020016040519081016040528092919081815260200182805461047490613736565b80156104c15780601f10610496576101008083540402835291602001916104c1565b820191906000526020600020905b8154815290600101906020018083116104a457829003601f168201915b5050505050905090565b60006104d6826113d1565b610515576040517f08c379a000000000000000000000000000000000000000000000000000000000815260040161050c906133c5565b60405180910390fd5b6004600083815260200190815260200160002060009054906101000a900473ffffffffffffffffffffffffffffffffffffffff169050919050565b600061055b82610898565b90508073ffffffffffffffffffffffffffffffffffffffff168373ffffffffffffffffffffffffffffffffffffffff1614156105cc576040517f08c379a00000000000000000000000000000000000000000000000000000000081526004016105c390613405565b60405180910390fd5b8073ffffffffffffffffffffffffffffffffffffffff166105eb61143d565b73ffffffffffffffffffffffffffffffffffffffff16148061061a57506106198161061461143d565b610c5e565b5b610659576040517f08c379a000000000000000000000000000000000000000000000000000000000815260040161065090613305565b60405180910390fd5b6106638383611445565b505050565b6060600061069e84610679876114fe565b60405160200161068a929190612f4b565b6040516020818303038152906040526116ab565b90508251816106ad91906137e2565b90508281815181106106e8577f4e487b7100000000000000000000000000000000000000000000000000000000600052603260045260246000fd5b60200260200101519150509392505050565b61070b61070561143d565b826116de565b61074a576040517f08c379a000000000000000000000000000000000000000000000000000000000815260040161074190613425565b60405180910390fd5b6107558383836117bc565b505050565b61077583838360405180602001604052806000815250610aaa565b505050565b606060006107ae61078a846114fe565b60405160200161079a9190613050565b6040516020818303038152906040526116ab565b9050600c80549050816107c191906137e2565b9050600c81815481106107fd577f4e487b7100000000000000000000000000000000000000000000000000000000600052603260045260246000fd5b90600052602060002001805461081290613736565b80601f016020809104026020016040519081016040528092919081815260200182805461083e90613736565b801561088b5780601f106108605761010080835404028352916020019161088b565b820191906000526020600020905b81548152906001019060200180831161086e57829003601f168201915b5050505050915050919050565b6000806002600084815260200190815260200160002060009054906101000a900473ffffffffffffffffffffffffffffffffffffffff169050600073ffffffffffffffffffffffffffffffffffffffff168173ffffffffffffffffffffffffffffffffffffffff161415610941576040517f08c379a000000000000000000000000000000000000000000000000000000000815260040161093890613345565b60405180910390fd5b80915050919050565b60008073ffffffffffffffffffffffffffffffffffffffff168273ffffffffffffffffffffffffffffffffffffffff1614156109bb576040517f08c379a00000000000000000000000000000000000000000000000000000000081526004016109b290613325565b60405180910390fd5b600360008373ffffffffffffffffffffffffffffffffffffffff1673ffffffffffffffffffffffffffffffffffffffff168152602001908152602001600020549050919050565b606060018054610a1190613736565b80601f0160208091040260200160405190810160405280929190818152602001828054610a3d90613736565b8015610a8a5780601f10610a5f57610100808354040283529160200191610a8a565b820191906000526020600020905b815481529060010190602001808311610a6d57829003601f168201915b5050505050905090565b610aa6610a9f61143d565b8383611a23565b5050565b610abb610ab561143d565b836116de565b610afa576040517f08c379a0000000000000000000000000000000000000000000000000000000008152600401610af190613425565b60405180910390fd5b610b0684848484611b90565b50505050565b6060610b17826113d1565b610b56576040517f08c379a0000000000000000000000000000000000000000000000000000000008152600401610b4d906133a5565b60405180910390fd5b6000600660008481526020019081526020016000208054610b7690613736565b80601f0160208091040260200160405190810160405280929190818152602001828054610ba290613736565b8015610bef5780601f10610bc457610100808354040283529160200191610bef565b820191906000526020600020905b815481529060010190602001808311610bd257829003601f168201915b505050505090506000610c00611bec565b9050600081511415610c16578192505050610c59565b600082511115610c4b578082604051602001610c33929190612f4b565b60405160208183030381529060405292505050610c59565b610c5484611c03565b925050505b919050565b6000600560008473ffffffffffffffffffffffffffffffffffffffff1673ffffffffffffffffffffffffffffffffffffffff16815260200190815260200160002060008373ffffffffffffffffffffffffffffffffffffffff1673ffffffffffffffffffffffffffffffffffffffff16815260200190815260200160002060009054906101000a900460ff16905092915050565b6000610cfe600d611caa565b90506000610e13826040518060400160405280600a81526020017f46495253545f574f5244000000000000000000000000000000000000000000008152506007805480602002602001604051908101604052809291908181526020016000905b82821015610e0a578382906000526020600020018054610d7d90613736565b80601f0160208091040260200160405190810160405280929190818152602001828054610da990613736565b8015610df65780601f10610dcb57610100808354040283529160200191610df6565b820191906000526020600020905b815481529060010190602001808311610dd957829003601f168201915b505050505081526020019060010190610d5e565b50505050610668565b90506000610f28836040518060400160405280600b81526020017f5345434f4e445f574f52440000000000000000000000000000000000000000008152506008805480602002602001604051908101604052809291908181526020016000905b82821015610f1f578382906000526020600020018054610e9290613736565b80601f0160208091040260200160405190810160405280929190818152602001828054610ebe90613736565b8015610f0b5780601f10610ee057610100808354040283529160200191610f0b565b820191906000526020600020905b815481529060010190602001808311610eee57829003601f168201915b505050505081526020019060010190610e73565b50505050610668565b9050600061103d846040518060400160405280600a81526020017f54484952445f574f5244000000000000000000000000000000000000000000008152506009805480602002602001604051908101604052809291908181526020016000905b82821015611034578382906000526020600020018054610fa790613736565b80601f0160208091040260200160405190810160405280929190818152602001828054610fd390613736565b80156110205780601f10610ff557610100808354040283529160200191611020565b820191906000526020600020905b81548152906001019060200180831161100357829003601f168201915b505050505081526020019060010190610f88565b50505050610668565b9050600083838360405160200161105693929190612f6f565b604051602081830303815290604052905060006110728661077a565b90506110b26040518060400160405280601581526020017f0a2d2d2d2d2d2d2d2d2d2d2d2d2d2d2d2d2d2d2d2d0000000000000000000000815250611cb8565b6110be85858585611d51565b6110fd6040518060400160405280600c81526020017f72616e646f6d436f6c6f723d000000000000000000000000000000000000000081525082611df3565b61113b6040518060400160405280601581526020017f2d2d2d2d2d2d2d2d2d2d2d2d2d2d2d2d2d2d2d2d0a0000000000000000000000815250611cb8565b6000600a82600b856040516020016111569493929190612fa0565b6040516020818303038152906040529050600061119b8461117684611e8f565b604051602001611187929190612fe9565b604051602081830303815290604052611e8f565b90506000816040516020016111b0919061302e565b60405160208183030381529060405290506111ff6040518060400160405280601581526020017f0a2d2d2d2d2d2d2d2d2d2d2d2d2d2d2d2d2d2d2d2d0000000000000000000000815250611cb8565b61120881611cb8565b6112466040518060400160405280601581526020017f2d2d2d2d2d2d2d2d2d2d2d2d2d2d2d2d2d2d2d2d0a0000000000000000000000815250611cb8565b611250338a61204d565b61125a898261206b565b611264600d6120df565b611287604051806060016040528060258152602001613f23602591398a336120f5565b7fbbedd439cfe8aa51324de58375e6ffccc4ac766d72b9aaeb8a0e4960923ea416338a6040516112b89291906130d9565b60405180910390a1505050505050505050565b61136382826040516024016112e192919061313f565b6040516020818303038152906040527f319af333000000000000000000000000000000000000000000000000000000007bffffffffffffffffffffffffffffffffffffffffffffffffffffffff19166020820180517bffffffffffffffffffffffffffffffffffffffffffffffffffffffff8381831617835250505050612194565b5050565b60007f01ffc9a7000000000000000000000000000000000000000000000000000000007bffffffffffffffffffffffffffffffffffffffffffffffffffffffff1916827bffffffffffffffffffffffffffffffffffffffffffffffffffffffff1916149050919050565b60008073ffffffffffffffffffffffffffffffffffffffff166002600084815260200190815260200160002060009054906101000a900473ffffffffffffffffffffffffffffffffffffffff1673ffffffffffffffffffffffffffffffffffffffff1614159050919050565b600033905090565b816004600083815260200190815260200160002060006101000a81548173ffffffffffffffffffffffffffffffffffffffff021916908373ffffffffffffffffffffffffffffffffffffffff160217905550808273ffffffffffffffffffffffffffffffffffffffff166114b883610898565b73ffffffffffffffffffffffffffffffffffffffff167f8c5be1e5ebec7d5bd14f71427d1e84f3dd0314c0f7b2291e5b200ac8c7c3b92560405160405180910390a45050565b60606000821415611546576040518060400160405280600181526020017f300000000000000000000000000000000000000000000000000000000000000081525090506116a6565b600082905060005b6000821461157857808061156190613799565b915050600a8261157191906135c1565b915061154e565b60008167ffffffffffffffff8111156115ba577f4e487b7100000000000000000000000000000000000000000000000000000000600052604160045260246000fd5b6040519080825280601f01601f1916602001820160405280156115ec5781602001600182028036833780820191505090505b5090505b6000851461169f57600182611605919061364c565b9150600a8561161491906137e2565b6030611620919061356b565b60f81b81838151811061165c577f4e487b7100000000000000000000000000000000000000000000000000000000600052603260045260246000fd5b60200101907effffffffffffffffffffffffffffffffffffffffffffffffffffffffffffff1916908160001a905350600a8561169891906135c1565b94506115f0565b8093505050505b919050565b6000816040516020016116be9190612f34565b6040516020818303038152906040528051906020012060001c9050919050565b60006116e9826113d1565b611728576040517f08c379a000000000000000000000000000000000000000000000000000000000815260040161171f906132e5565b60405180910390fd5b600061173383610898565b90508073ffffffffffffffffffffffffffffffffffffffff168473ffffffffffffffffffffffffffffffffffffffff16148061177557506117748185610c5e565b5b806117b357508373ffffffffffffffffffffffffffffffffffffffff1661179b846104cb565b73ffffffffffffffffffffffffffffffffffffffff16145b91505092915050565b8273ffffffffffffffffffffffffffffffffffffffff166117dc82610898565b73ffffffffffffffffffffffffffffffffffffffff1614611832576040517f08c379a000000000000000000000000000000000000000000000000000000000815260040161182990613265565b60405180910390fd5b600073ffffffffffffffffffffffffffffffffffffffff168273ffffffffffffffffffffffffffffffffffffffff1614156118a2576040517f08c379a0000000000000000000000000000000000000000000000000000000008152600401611899906132a5565b60405180910390fd5b6118ad8383836121bd565b6118b8600082611445565b6001600360008573ffffffffffffffffffffffffffffffffffffffff1673ffffffffffffffffffffffffffffffffffffffff1681526020019081526020016000206000828254611908919061364c565b925050819055506001600360008473ffffffffffffffffffffffffffffffffffffffff1673ffffffffffffffffffffffffffffffffffffffff168152602001908152602001600020600082825461195f919061356b565b92505081905550816002600083815260200190815260200160002060006101000a81548173ffffffffffffffffffffffffffffffffffffffff021916908373ffffffffffffffffffffffffffffffffffffffff160217905550808273ffffffffffffffffffffffffffffffffffffffff168473ffffffffffffffffffffffffffffffffffffffff167fddf252ad1be2c89b69c2b068fc378daa952ba7f163c4a11628f55a4df523b3ef60405160405180910390a4611a1e8383836121c2565b505050565b8173ffffffffffffffffffffffffffffffffffffffff168373ffffffffffffffffffffffffffffffffffffffff161415611a92576040517f08c379a0000000000000000000000000000000000000000000000000000000008152600401611a89906132c5565b60405180910390fd5b80600560008573ffffffffffffffffffffffffffffffffffffffff1673ffffffffffffffffffffffffffffffffffffffff16815260200190815260200160002060008473ffffffffffffffffffffffffffffffffffffffff1673ffffffffffffffffffffffffffffffffffffffff16815260200190815260200160002060006101000a81548160ff0219169083151502179055508173ffffffffffffffffffffffffffffffffffffffff168373ffffffffffffffffffffffffffffffffffffffff167f17307eab39ab6107e8899845ad3d59bd9653f200f220920489ca2b5937696c3183604051611b839190613102565b60405180910390a3505050565b611b9b8484846117bc565b611ba7848484846121c7565b611be6576040517f08c379a0000000000000000000000000000000000000000000000000000000008152600401611bdd90613245565b60405180910390fd5b50505050565b606060405180602001604052806000815250905090565b6060611c0e826113d1565b611c4d576040517f08c379a0000000000000000000000000000000000000000000000000000000008152600401611c44906133e5565b60405180910390fd5b6000611c57611bec565b90506000815111611c775760405180602001604052806000815250611ca2565b80611c81846114fe565b604051602001611c92929190612f4b565b6040516020818303038152906040525b915050919050565b600081600001549050919050565b611d4e81604051602401611ccc919061311d565b6040516020818303038152906040527f41304fac000000000000000000000000000000000000000000000000000000007bffffffffffffffffffffffffffffffffffffffffffffffffffffffff19166020820180517bffffffffffffffffffffffffffffffffffffffffffffffffffffffff8381831617835250505050612194565b50565b611ded84848484604051602401611d6b94939291906131a6565b6040516020818303038152906040527fde68f20a000000000000000000000000000000000000000000000000000000007bffffffffffffffffffffffffffffffffffffffffffffffffffffffff19166020820180517bffffffffffffffffffffffffffffffffffffffffffffffffffffffff8381831617835250505050612194565b50505050565b611e8b8282604051602401611e0992919061316f565b6040516020818303038152906040527f4b5c4277000000000000000000000000000000000000000000000000000000007bffffffffffffffffffffffffffffffffffffffffffffffffffffffff19166020820180517bffffffffffffffffffffffffffffffffffffffffffffffffffffffff8381831617835250505050612194565b5050565b60606000825190506000811415611eb85760405180602001604052806000815250915050612048565b60006003600283611ec9919061356b565b611ed391906135c1565b6004611edf91906135f2565b90506000602082611ef0919061356b565b67ffffffffffffffff811115611f2f577f4e487b7100000000000000000000000000000000000000000000000000000000600052604160045260246000fd5b6040519080825280601f01601f191660200182016040528015611f615781602001600182028036833780820191505090505b5090506000604051806060016040528060408152602001613f48604091399050600181016020830160005b868110156120055760038101905062ffffff818a015116603f8160121c168401518060081b905060ff603f83600c1c1686015116810190508060081b905060ff603f8360061c1686015116810190508060081b905060ff603f831686015116810190508060e01b90508084526004840193505050611f8c565b50600386066001811461201f576002811461202f5761203a565b613d3d60f01b600283035261203a565b603d60f81b60018303525b508484525050819450505050505b919050565b61206782826040518060200160405280600081525061235e565b5050565b612074826113d1565b6120b3576040517f08c379a00000000000000000000000000000000000000000000000000000000081526004016120aa90613365565b60405180910390fd5b806006600084815260200190815260200160002090805190602001906120da9291906125b6565b505050565b6001816000016000828254019250508190555050565b61218f83838360405160240161210d93929190613207565b6040516020818303038152906040527fe3849f79000000000000000000000000000000000000000000000000000000007bffffffffffffffffffffffffffffffffffffffffffffffffffffffff19166020820180517bffffffffffffffffffffffffffffffffffffffffffffffffffffffff8381831617835250505050612194565b505050565b60008151905060006a636f6e736f6c652e6c6f679050602083016000808483855afa5050505050565b505050565b505050565b60006121e88473ffffffffffffffffffffffffffffffffffffffff166123b9565b15612351578373ffffffffffffffffffffffffffffffffffffffff1663150b7a0261221161143d565b8786866040518563ffffffff1660e01b8152600401612233949392919061308d565b602060405180830381600087803b15801561224d57600080fd5b505af192505050801561227e57506040513d601f19601f8201168201806040525081019061227b9190612a12565b60015b612301573d80600081146122ae576040519150601f19603f3d011682016040523d82523d6000602084013e6122b3565b606091505b506000815114156122f9576040517f08c379a00000000000000000000000000000000000000000000000000000000081526004016122f090613245565b60405180910390fd5b805181602001fd5b63150b7a0260e01b7bffffffffffffffffffffffffffffffffffffffffffffffffffffffff1916817bffffffffffffffffffffffffffffffffffffffffffffffffffffffff191614915050612356565b600190505b949350505050565b61236883836123dc565b61237560008484846121c7565b6123b4576040517f08c379a00000000000000000000000000000000000000000000000000000000081526004016123ab90613245565b60405180910390fd5b505050565b6000808273ffffffffffffffffffffffffffffffffffffffff163b119050919050565b600073ffffffffffffffffffffffffffffffffffffffff168273ffffffffffffffffffffffffffffffffffffffff16141561244c576040517f08c379a000000000000000000000000000000000000000000000000000000000815260040161244390613385565b60405180910390fd5b612455816113d1565b15612495576040517f08c379a000000000000000000000000000000000000000000000000000000000815260040161248c90613285565b60405180910390fd5b6124a1600083836121bd565b6001600360008473ffffffffffffffffffffffffffffffffffffffff1673ffffffffffffffffffffffffffffffffffffffff16815260200190815260200160002060008282546124f1919061356b565b92505081905550816002600083815260200190815260200160002060006101000a81548173ffffffffffffffffffffffffffffffffffffffff021916908373ffffffffffffffffffffffffffffffffffffffff160217905550808273ffffffffffffffffffffffffffffffffffffffff16600073ffffffffffffffffffffffffffffffffffffffff167fddf252ad1be2c89b69c2b068fc378daa952ba7f163c4a11628f55a4df523b3ef60405160405180910390a46125b2600083836121c2565b5050565b8280546125c290613736565b90600052602060002090601f0160209004810192826125e4576000855561262b565b82601f106125fd57805160ff191683800117855561262b565b8280016001018555821561262b579182015b8281111561262a57825182559160200191906001019061260f565b5b509050612638919061263c565b5090565b5b8082111561265557600081600090555060010161263d565b5090565b600061266c61266784613485565b613460565b9050808382526020820190508285602086028201111561268b57600080fd5b60005b858110156126d557813567ffffffffffffffff8111156126ad57600080fd5b8086016126ba8982612803565b8552602085019450602084019350505060018101905061268e565b5050509392505050565b60006126f26126ed846134b1565b613460565b90508281526020810184848401111561270a57600080fd5b6127158482856136f4565b509392505050565b600061273061272b846134e2565b613460565b90508281526020810184848401111561274857600080fd5b6127538482856136f4565b509392505050565b60008135905061276a81613ec6565b92915050565b600082601f83011261278157600080fd5b8135612791848260208601612659565b91505092915050565b6000813590506127a981613edd565b92915050565b6000813590506127be81613ef4565b92915050565b6000815190506127d381613ef4565b92915050565b600082601f8301126127ea57600080fd5b81356127fa8482602086016126df565b91505092915050565b600082601f83011261281457600080fd5b813561282484826020860161271d565b91505092915050565b60008135905061283c81613f0b565b92915050565b60006020828403121561285457600080fd5b60006128628482850161275b565b91505092915050565b6000806040838503121561287e57600080fd5b600061288c8582860161275b565b925050602061289d8582860161275b565b9150509250929050565b6000806000606084860312156128bc57600080fd5b60006128ca8682870161275b565b93505060206128db8682870161275b565b92505060406128ec8682870161282d565b9150509250925092565b6000806000806080858703121561290c57600080fd5b600061291a8782880161275b565b945050602061292b8782880161275b565b935050604061293c8782880161282d565b925050606085013567ffffffffffffffff81111561295957600080fd5b612965878288016127d9565b91505092959194509250565b6000806040838503121561298457600080fd5b60006129928582860161275b565b92505060206129a38582860161279a565b9150509250929050565b600080604083850312156129c057600080fd5b60006129ce8582860161275b565b92505060206129df8582860161282d565b9150509250929050565b6000602082840312156129fb57600080fd5b6000612a09848285016127af565b91505092915050565b600060208284031215612a2457600080fd5b6000612a32848285016127c4565b91505092915050565b600060208284031215612a4d57600080fd5b6000612a5b8482850161282d565b91505092915050565b600080600060608486031215612a7957600080fd5b6000612a878682870161282d565b935050602084013567ffffffffffffffff811115612aa457600080fd5b612ab086828701612803565b925050604084013567ffffffffffffffff811115612acd57600080fd5b612ad986828701612770565b9150509250925092565b612aec81613680565b82525050565b612afb81613692565b82525050565b6000612b0c82613528565b612b16818561353e565b9350612b26818560208601613703565b612b2f816138cf565b840191505092915050565b6000612b4582613533565b612b4f818561354f565b9350612b5f818560208601613703565b612b68816138cf565b840191505092915050565b6000612b7e82613533565b612b888185613560565b9350612b98818560208601613703565b80840191505092915050565b60008154612bb181613736565b612bbb8186613560565b94506001821660008114612bd65760018114612be757612c1a565b60ff19831686528186019350612c1a565b612bf085613513565b60005b83811015612c1257815481890152600182019150602081019050612bf3565b838801955050505b50505092915050565b6000612c3060328361354f565b9150612c3b826138e0565b604082019050919050565b6000612c5360258361354f565b9150612c5e8261392f565b604082019050919050565b6000612c76601c8361354f565b9150612c818261397e565b602082019050919050565b6000612c9960248361354f565b9150612ca4826139a7565b604082019050919050565b6000612cbc60198361354f565b9150612cc7826139f6565b602082019050919050565b6000612cdf606383613560565b9150612cea82613a1f565b606382019050919050565b6000612d02602c8361354f565b9150612d0d82613aba565b604082019050919050565b6000612d25600d83613560565b9150612d3082613b09565b600d82019050919050565b6000612d4860388361354f565b9150612d5382613b32565b604082019050919050565b6000612d6b602a8361354f565b9150612d7682613b81565b604082019050919050565b6000612d8e60298361354f565b9150612d9982613bd0565b604082019050919050565b6000612db1602e8361354f565b9150612dbc82613c1f565b604082019050919050565b6000612dd4600283613560565b9150612ddf82613c6e565b600282019050919050565b6000612df760208361354f565b9150612e0282613c97565b602082019050919050565b6000612e1a60318361354f565b9150612e2582613cc0565b604082019050919050565b6000612e3d602c8361354f565b9150612e4882613d0f565b604082019050919050565b6000612e60602f8361354f565b9150612e6b82613d5e565b604082019050919050565b6000612e83600a83613560565b9150612e8e82613dad565b600a82019050919050565b6000612ea660218361354f565b9150612eb182613dd6565b604082019050919050565b6000612ec9601d83613560565b9150612ed482613e25565b601d82019050919050565b6000612eec60318361354f565b9150612ef782613e4e565b604082019050919050565b6000612f0f600583613560565b9150612f1a82613e9d565b600582019050919050565b612f2e816136ea565b82525050565b6000612f408284612b73565b915081905092915050565b6000612f578285612b73565b9150612f638284612b73565b91508190509392505050565b6000612f7b8286612b73565b9150612f878285612b73565b9150612f938284612b73565b9150819050949350505050565b6000612fac8287612ba4565b9150612fb88286612b73565b9150612fc48285612ba4565b9150612fd08284612b73565b9150612fdb82612d18565b915081905095945050505050565b6000612ff482612e76565b91506130008285612b73565b915061300b82612cd2565b91506130178284612b73565b915061302282612dc7565b91508190509392505050565b600061303982612ebc565b91506130458284612b73565b915081905092915050565b600061305b82612f02565b91506130678284612b73565b915081905092915050565b60006020820190506130876000830184612ae3565b92915050565b60006080820190506130a26000830187612ae3565b6130af6020830186612ae3565b6130bc6040830185612f25565b81810360608301526130ce8184612b01565b905095945050505050565b60006040820190506130ee6000830185612ae3565b6130fb6020830184612f25565b9392505050565b60006020820190506131176000830184612af2565b92915050565b600060208201905081810360008301526131378184612b3a565b905092915050565b600060408201905081810360008301526131598185612b3a565b90506131686020830184612ae3565b9392505050565b600060408201905081810360008301526131898185612b3a565b9050818103602083015261319d8184612b3a565b90509392505050565b600060808201905081810360008301526131c08187612b3a565b905081810360208301526131d48186612b3a565b905081810360408301526131e88185612b3a565b905081810360608301526131fc8184612b3a565b905095945050505050565b600060608201905081810360008301526132218186612b3a565b90506132306020830185612f25565b61323d6040830184612ae3565b949350505050565b6000602082019050818103600083015261325e81612c23565b9050919050565b6000602082019050818103600083015261327e81612c46565b9050919050565b6000602082019050818103600083015261329e81612c69565b9050919050565b600060208201905081810360008301526132be81612c8c565b9050919050565b600060208201905081810360008301526132de81612caf565b9050919050565b600060208201905081810360008301526132fe81612cf5565b9050919050565b6000602082019050818103600083015261331e81612d3b565b9050919050565b6000602082019050818103600083015261333e81612d5e565b9050919050565b6000602082019050818103600083015261335e81612d81565b9050919050565b6000602082019050818103600083015261337e81612da4565b9050919050565b6000602082019050818103600083015261339e81612dea565b9050919050565b600060208201905081810360008301526133be81612e0d565b9050919050565b600060208201905081810360008301526133de81612e30565b9050919050565b600060208201905081810360008301526133fe81612e53565b9050919050565b6000602082019050818103600083015261341e81612e99565b9050919050565b6000602082019050818103600083015261343e81612edf565b9050919050565b600060208201905061345a6000830184612f25565b92915050565b600061346a61347b565b90506134768282613768565b919050565b6000604051905090565b600067ffffffffffffffff8211156134a05761349f6138a0565b5b602082029050602081019050919050565b600067ffffffffffffffff8211156134cc576134cb6138a0565b5b6134d5826138cf565b9050602081019050919050565b600067ffffffffffffffff8211156134fd576134fc6138a0565b5b613506826138cf565b9050602081019050919050565b60008190508160005260206000209050919050565b600081519050919050565b600081519050919050565b600082825260208201905092915050565b600082825260208201905092915050565b600081905092915050565b6000613576826136ea565b9150613581836136ea565b9250827fffffffffffffffffffffffffffffffffffffffffffffffffffffffffffffffff038211156135b6576135b5613813565b5b828201905092915050565b60006135cc826136ea565b91506135d7836136ea565b9250826135e7576135e6613842565b5b828204905092915050565b60006135fd826136ea565b9150613608836136ea565b9250817fffffffffffffffffffffffffffffffffffffffffffffffffffffffffffffffff048311821515161561364157613640613813565b5b828202905092915050565b6000613657826136ea565b9150613662836136ea565b92508282101561367557613674613813565b5b828203905092915050565b600061368b826136ca565b9050919050565b60008115159050919050565b60007fffffffff0000000000000000000000000000000000000000000000000000000082169050919050565b600073ffffffffffffffffffffffffffffffffffffffff82169050919050565b6000819050919050565b82818337600083830152505050565b60005b83811015613721578082015181840152602081019050613706565b83811115613730576000848401525b50505050565b6000600282049050600182168061374e57607f821691505b6020821081141561376257613761613871565b5b50919050565b613771826138cf565b810181811067ffffffffffffffff821117156137905761378f6138a0565b5b80604052505050565b60006137a4826136ea565b91507fffffffffffffffffffffffffffffffffffffffffffffffffffffffffffffffff8214156137d7576137d6613813565b5b600182019050919050565b60006137ed826136ea565b91506137f8836136ea565b92508261380857613807613842565b5b828206905092915050565b7f4e487b7100000000000000000000000000000000000000000000000000000000600052601160045260246000fd5b7f4e487b7100000000000000000000000000000000000000000000000000000000600052601260045260246000fd5b7f4e487b7100000000000000000000000000000000000000000000000000000000600052602260045260246000fd5b7f4e487b7100000000000000000000000000000000000000000000000000000000600052604160045260246000fd5b6000601f19601f8301169050919050565b7f4552433732313a207472616e7366657220746f206e6f6e20455243373231526560008201527f63656976657220696d706c656d656e7465720000000000000000000000000000602082015250565b7f4552433732313a207472616e736665722066726f6d20696e636f72726563742060008201527f6f776e6572000000000000000000000000000000000000000000000000000000602082015250565b7f4552433732313a20746f6b656e20616c7265616479206d696e74656400000000600082015250565b7f4552433732313a207472616e7366657220746f20746865207a65726f2061646460008201527f7265737300000000000000000000000000000000000000000000000000000000602082015250565b7f4552433732313a20617070726f766520746f2063616c6c657200000000000000600082015250565b7f222c20226465736372697074696f6e223a20224120686967686c79206163636c60008201527f61696d656420636f6c6c656374696f6e206f6620737175617265732e222c202260208201527f696d616765223a2022646174613a696d6167652f7376672b786d6c3b6261736560408201527f36342c0000000000000000000000000000000000000000000000000000000000606082015250565b7f4552433732313a206f70657261746f7220717565727920666f72206e6f6e657860008201527f697374656e7420746f6b656e0000000000000000000000000000000000000000602082015250565b7f3c2f746578743e3c2f7376673e00000000000000000000000000000000000000600082015250565b7f4552433732313a20617070726f76652063616c6c6572206973206e6f74206f7760008201527f6e6572206e6f7220617070726f76656420666f7220616c6c0000000000000000602082015250565b7f4552433732313a2062616c616e636520717565727920666f7220746865207a6560008201527f726f206164647265737300000000000000000000000000000000000000000000602082015250565b7f4552433732313a206f776e657220717565727920666f72206e6f6e657869737460008201527f656e7420746f6b656e0000000000000000000000000000000000000000000000602082015250565b7f45524337323155524953746f726167653a2055524920736574206f66206e6f6e60008201527f6578697374656e7420746f6b656e000000000000000000000000000000000000602082015250565b7f227d000000000000000000000000000000000000000000000000000000000000600082015250565b7f4552433732313a206d696e7420746f20746865207a65726f2061646472657373600082015250565b7f45524337323155524953746f726167653a2055524920717565727920666f722060008201527f6e6f6e6578697374656e7420746f6b656e000000000000000000000000000000602082015250565b7f4552433732313a20617070726f76656420717565727920666f72206e6f6e657860008201527f697374656e7420746f6b656e0000000000000000000000000000000000000000602082015250565b7f4552433732314d657461646174613a2055524920717565727920666f72206e6f60008201527f6e6578697374656e7420746f6b656e0000000000000000000000000000000000602082015250565b7f7b226e616d65223a202200000000000000000000000000000000000000000000600082015250565b7f4552433732313a20617070726f76616c20746f2063757272656e74206f776e6560008201527f7200000000000000000000000000000000000000000000000000000000000000602082015250565b7f646174613a6170706c69636174696f6e2f6a736f6e3b6261736536342c000000600082015250565b7f4552433732313a207472616e736665722063616c6c6572206973206e6f74206f60008201527f776e6572206e6f7220617070726f766564000000000000000000000000000000602082015250565b7f434f4c4f52000000000000000000000000000000000000000000000000000000600082015250565b613ecf81613680565b8114613eda57600080fd5b50565b613ee681613692565b8114613ef157600080fd5b50565b613efd8161369e565b8114613f0857600080fd5b50565b613f14816136ea565b8114613f1f57600080fd5b5056fe416e204e465420772f20494420257320686173206265656e206d696e74656420746f2025734142434445464748494a4b4c4d4e4f505152535455565758595a6162636465666768696a6b6c6d6e6f707172737475767778797a303132333435363738392b2fa2646970667358221220b219e837d586aa30688648e8d31a1e60b12dd053f54b54ca30e7d1b72a9a6a8c64736f6c634300080400333c73766720786d6c6e733d27687474703a2f2f7777772e77332e6f72672f323030302f73766727207072657365727665417370656374526174696f3d27784d696e594d696e206d656574272076696577426f783d273020302033353020333530273e3c7374796c653e2e62617365207b2066696c6c3a2077686974653b20666f6e742d66616d696c793a2073657269663b20666f6e742d73697a653a20323470783b207d3c2f7374796c653e3c726563742077696474683d273130302527206865696768743d2731303025272066696c6c3d27272f3e3c7465787420783d273530252720793d273530252720636c6173733d27626173652720646f6d696e616e742d626173656c696e653d276d6964646c652720746578742d616e63686f723d276d6964646c65273e",
  "linkReferences": {},
  "deployedLinkReferences": {}
}